:020000040000FA
:1000AD00E709F608DFFA8046E709F208DFFA803E35
:1000BD0088828C83E709F0A3DFFA8032E309F60822
:1000CD00DFFA8078E309F208DFFA807088828C838A
:1000DD00E309F0A3DFFA806489828A83E0A3F6083E
:1000ED00DFFA805889828A83E0A3F208DFFA804C18
:1000FD0080D280FA80C680D4806980F280338010EF
:10010D0080A680EA809A80A880DA80E280CA803357
:10011D0089828A83ECFAE493A3C8C582C8CCC583CF
:10012D00CCF0A3C8C582C8CCC583CCDFE9DEE7809F
:10013D000D89828A83E493A3F608DFF9ECFAA9F01E
:10014D00EDFB2289828A83ECFAE0A3C8C582C8CC74
:10015D00C583CCF0A3C8C582C8CCC583CCDFEADE8D
:10016D00E880DB89828A83E493A3F208DFF980CCEF
:10017D0088F0EF60010E4E60C388F0ED2402B404E8
:10018D000050B9F582EB2402B4040050AF2323458F
:10019D0082239000FD73BB010689828A83E0225081
:1001AD0002E722BBFE02E32289828A83E49322BB0B
:1001BD00010CE58229F582E5833AF583E0225006AC
:1001CD00E92582F8E622BBFE06E92582F8E222E562
:1001DD008229F582E5833AF583E4932275FF027552
:1001ED00E40475E40175E40275FF0375D40475FF2D
:1001FD0003E4F59175FF037592CE759107F51DF525
:10020D001E75FF0343918075FF03E59120E7FB0504
:10021D001EE51E7002051DB4F3E7E51DB401E27580
:10022D00FF0175D30175FF0275D28075FF0243E79B
:10023D0004E4F51DF51E051EE51E7002051DB4E84E
:10024D00F5E51DB403F075FF0253E7FB80FE7B015E
:10025D007A00790575FF0375D40275FF031201A3AA
:10026D00F5D375FF039000011201BCF5D375FF03A3
:10027D009000021201BCF5D375FF0390000312012B
:10028D00BCF5D375FF0375D40175FF03E5D5540295
:02029D00FF223E
:1002A000003C0300000000000000000010020024D9
:1002B0002840060024204004000000000000000048
:1002C000000000000000000000000000001201100B
:1002D000010000000858068002010000000001092A
:1002E000022000010100C0320904000002FFFFFFEC
:1002F0000007058202200000070502022000007F9F
:100300007F7F7F1F040101030027DBDEADBEEF7599
:10031000FF03ACD5EC20E13C75FF03ED543FF5D174
:1003200075FF03E9F5D375FF03EA540FFF9000044E
:10033000E0C4547044804FF5D2E5D520E205E5D500
:1003400030E0F6E5D55401FC75FF0343D40275FF98
:100350000375D505AF042275FF02E5DB65CB60FAB6
:10036000AFCB05CB74002FF582E43404F583E0FFB6
:01037000226A
:10050000FFFFFFFFFFFFFFFFE4F50AF50BF50CF51A
:100510000DF50EF511F512F513F51478057C007D37
:10052000017BFF7A03790BFE7F0412017D75FF02C8
:1005300043E40453E4F91207FBE4FFEF9002A093B5
:10054000FE74002FF582E43401F583EEF00FEFB472
:100550002DE9E4FFEF9002CD93FE74002FF582E4C5
:100560003402F583EEF00FEFB412E9E4FFEF9002EE
:10057000DF93FE74002FF582E43403F583EEF00F71
:10058000EFB43CE975FF0175D30175FF0275CF101B
:1005900075FF0275C5FF75FF0275D28CE5D330E794
:1005A000FB75FF0243E704E4F508F5090509E509D1
:1005B00070020508B4D0F5E508B407F075FF0253E2
:1005C000E7FB75FF0253E7FD1203578F0A1203572B
:1005D0008F0B1203578F0C1203578F0DE50A64041B
:1005E0007030E50B751600F515F512E50C2516F5BE
:1005F00016E43515F515E42516F51674083515F5C8
:1006000015F5178516180516E516AE15703705157C
:100610008033E50AB480380516E516AE157002057C
:100620001514F5828E83E50BF00516E516AE1570F0
:1006300002051514F5828E83E50CF00516E516AE5D
:10064000157002051514F5828E83E50DF08072E5B4
:100650000AB47F0585140D8068E50AB4300AE50BFD
:100660009002FF93F50D8059E50AB42016850B0E14
:10067000E50E600AC394405005751101804375145E
:1006800008803E900306E493650A7035A393650BDA
:10069000600DA3E493650C6006A3E493B50D22AF4F
:1006A000FD05FD74002FF582E43406F5837406F031
:1006B000E4FFFE0FBF00010EBE03F8BFE8F5120114
:1006C000E9AFFD74002FF582E43406F583E50AF006
:1006D000AFFD74012FF582E43406F583E50BF0AF2E
:1006E000FD74022FF582E43406F583E50CF0AFFDCE
:1006F00074032FF582E43406F583E50DF0740425C8
:10070000FDF5FDE511640160030205C8E516151647
:100710007002151585151985161AE5155407F51378
:10072000751508751600C3E5169518E5159517504B
:100730001385168285158374FFF00516E51670E69D
:10074000051580E2E51A2401F516E43519F515D3EF
:10075000E51694FFE51595195013851682851583C6
:1007600074FFF00516E51670E6051580E212025BCF
:100770008F0F851210E510D39513502512025B8F51
:100780000FE5107F00FE7B01EF2400F974083EFAAC
:10079000900004E510F0AD0E12030F8F0F051080CE
:0707A000D4E4F5110205C8C5
:0307FB00C2A9226E
:00000001FF