:030000000200A754
:03000B00020034BC
:10001D00E4F58CF58A758901D2A9D2AFD28C75FF22
:10002D0003759E02020508C0E0C0D075FF0275E49D
:10003D000475E40175E40275FF0375910075FF0306
:10004D007592CE759107751B00751C0075FF0343E6
:10005D00918075FF03E59120E7FB051CE51C7002FF
:10006D00051BB4F3E7E51BB401E275FF0375D4047A
:10007D0075FF0175D30175FF0275D28075E70475A3
:10008D001B00751C00051CE51C7002051BB4E8F572
:10009D00E51BB403F075E70180FE75812F02001D8D
:1007F000FFFFFFFFFFFFFFFFFFFFFFFFFFFF80FE89
:00000001FF
