:020000040000FA
:1000000002180002180308F308F80002180B0B0F7F
:0A0010000B192202181306360AC469
:07001B0002181B0AD84ABEBF
:060023000218237F0122F8
:0E002B0002182BE4FF0218110218330217F11D
:07003B0002183B121F2422F2
:0600430002184302235ADB
:10004B0002184BA24A922F22021853A24B92322231
:06005B0002185B0244D60E
:0700630002186375ED042291
:07006B0002186B75ED022283
:1000730002187341073500C12FC13241073400E034
:10008300020200003826E0020200022FD0E0040240
:10009300000446524545E00102001554E001020008
:1000A30016A5E0E8022568FEFEFEFEFEFEFEFEFE4D
:1000B300FEFEFEFEFEFEFEFEFEFEFEFEFEFEFEFE5D
:1000C300FEFEFEFEFEFEFEFEFEFEFEFEFEFEFEFE4D
:1000D300FEFEFEFEFEFEFEFEFEFEFEFEFEFEFEFE3D
:1000E300FEFEFEFEFEFEFEFEFEFEFEFEFEFEFEFE2D
:1000F300FEFEFEFEFEFEFEFEFEFEFEFEFEFEFEFE1D
:10010300FEFEFEFEFEFEFEFEFEFEFEFEFEFEFEFE0C
:10011300FEFEFEFEFEFEFEFEFEFEFEFEFEFEFEFEFC
:10012300FEFEFEFEFEFEFEFEFEFEFEFEFEFEFEFEEC
:10013300FEFEFEFEFEFEFEFEFEFEFEFEFEFEFEFEDC
:10014300FEFEFEFEFEFEFEFEFEFEFEFEFEFEFEFECC
:10015300FEFEFEFEFEFEFEFEFEFEFEFEFEFEFEFEBC
:10016300FEFEFEFEFEFEFEFEFEFEFEFEFEFEFEFEAC
:10017300FEFEFEFEFEFEFEFEFEFEFEFEFEFEFEFE9C
:10018300FEFEFEFEFEFEFEFEFEFEFEFEFEFEFEE0AA
:1001930001022650FFE00102268B28E001022F9E78
:1001A300FFE001022FCC00E005022FCD2FD0020685
:1001B300044104DE060114004104DD014104DB01B6
:1001C300C13B011900011700C150412B5200412BC3
:1001D3004700412B5000412B5100412B4EFF412B37
:1001E300870041287000412811055D2A9C0000000A
:1001F30000000000000000000000000000000000FC
:1002030000000000000000000000C1414127110070
:10021300C111C129013800C125C126C127412E4181
:1002230005412F2400C165432AED000000412AEC5B
:1002330000412AF000412C9EFFC137C139C144411E
:100243002B1400015100C123C121412B0600412B76
:100253001300602825F60604000000030008FE874B
:100263007F88CF7FC04FFBDFFDE067000080008009
:1002730086000100E87300800F0000600000412148
:100283006400412176004121670041216101412140
:1002930069024121620141239A00C148C1494128B1
:1002A300819641287D0FE002022FD20039E005023A
:1002B30030060039040604E00202300B0807E005AB
:1002C30002380D0807050604E0020238120013E0A5
:1002D3000C02381400000308000300080604060497
:1002E300E0050238200013FF0604E002023825006F
:1002F300000075819075FF03759E02120820021895
:10030300D4020412900076E47E019360F4A3FF54B8
:100313003F30E509541FFEE493A360010ECF54E080
:10032300B4E00EEFFAEEF9A3A3A3A3DAFDD9FB80A1
:10033300D654C025E0604B5026E493A3F854072419
:100343000CC8C333C4540F4420C8834004F45680FC
:100353000146F6DFE480B00102040810204080E487
:1003630093A3FAE493A3F8E493A3C8C582C8CAC5C8
:1003730083CAF0A3C8C582C8CAC583CADFE9DEE75A
:100383008085E493A3F8E493A34003F68001F20885
:10039300DFF402030AC2D5E830E70FB2D5E4C39B0A
:1003A300FBE49AFAE499F9E498F8EC30E717B2D54C
:1003B3001203CE1210F2E4C39BFBE49AFAE499F918
:1003C300E498F880031210F230D50DE4C39FFFE4E4
:1003D3009EFEE49DFDE49CFC227890E4F6D8FD901B
:1003E30000007F007E10E4F0A3DFFCDEFA902F31E3
:1003F300A3E583C394204011FEAF829020000E0F2B
:10040300E48002F0A3DFFCDEFA12082002030722D5
:1004130032EF90041D93900800730A20364CE55286
:10042300FF22EFF55222092F09340939093E094306
:100433000948094D09520957095C09610966096BA5
:10044300097A097F0989099309ED09F209F709FC7A
:100453000A010A060A0B0A100A1F0A290A3D0A4260
:100463000A470A560A5B0A920A970A9C0904000083
:10047300020A0000000705820220000007050202AD
:1004830020000009040100010202010005240010FC
:1004930001052401000104240200052406000107CC
:1004A300058103080020120100020200000858061B
:1004B30000020000000000010902000000010080AA
:1004C3003204030409A280CACF0998445CAD5506DF
:1004D30041469503860B50000D45DA000D40300070
:1004E300000000020C00013F3F3F04040435353592
:0C04F300000000003EA740803FD24434CF
:100508000C810C860C8B0C900C950C9A0C9F0CA4EF
:100518000CA90CAE0CB30CB80CBD0CC20CC70CCC9F
:100528000CD10CD60CDB0CE00CE500000000000040
:100538000000000000050000060000001000002474
:100548002880000024208000001138210000442861
:10055800800000442080000034382100003F241E21
:1005680016110E0B09070504030201F0C8A79177BD
:100578006760463835323024222014000101020217
:10058800030304040505060607070C040C0E0C13E8
:100598000C180C1D0C220C2C0C360C3B0C590C5E48
:1005A8005A2D5761766520362E303400822D1C1660
:1005B800131110100B9B0BC80BCD0BD200030102BB
:1005C800060405E4FD7C0CAB050DEB9005A8938FA4
:1005D800828E83F00FBF00010EDCEC01268F828E25
:1005E80083E4F07406D1077404D107A3A3E4F0EF01
:1005F8002404F582E43EF583E4F0A3745BF022A3BF
:10060800F08F828E83A322902F07EFF0902B89E042
:10061800B40110C2ED7A2F7907902C26D12C120B39
:1006280078D2ED227B011212737A2B798A22902BD1
:1006380089E0640170287B017A2B798A120B82EF9A
:10064800701C902F08F0C2ED7A2F7908902C07D1F2
:100658002C120B7DD2ED902F08E0FF120B4B227A63
:100668000B7B5012B6A9902B897401F0FBD1917EB7
:10067800067F3690073DE0FCA3E04C700A90073DEA
:10068800EEF0A3EFF0D322C3227A2B7992902CBA02
:10069800121273902CBD7401F0A37405F07A2B79B3
:1006A8008A020B737F01D1BC902B89E0B401047BD3
:1006B80001D19122EF600E121B75AF82AE83E4FD6B
:1006C800123AFA8010302F037F0022120B3C123CA2
:1006D800E3E433FF227F0122E4FFD1BCEF6035F170
:1006E8001D1230295004F1CD40F57B017A07793B82
:1006F800123029500EF1DC5FFFA3E05FFFA3E05F3B
:10070800F460E77F01D1BC754B017E007F08F11DC5
:10071800F1BFF16F227B017A0779392290096912BA
:10072800127390096CEDF0E4A3F0ED54FE90096C9F
:10073800F0602AE4FFD1BCBF012390096912126A54
:10074800123029501890096AF1C690096DE0240208
:10075800F090096DE0FF90096CE06F70DD7F01D1CA
:10076800BC90096DE0FF227404F080037405F090DA
:100778002CED121273E4FCFDC007902CED12126AE6
:10078800902CF0F1EED007021415902BA0E0FEA3F8
:10079800E0FFC3902B9FE09FF0902B9EE09EF0908F
:1007A8002B97121215E4FCFD12104C902B97121285
:1007B80021902B9B02126A902CF0E4F0A322E4759E
:1007C800F002020F9E900739E0C394C022F17774BB
:1007D800FFFDFC22900739E0FFA3E0227D02F1240F
:1007E800EFC36001D322E0FFA3E0902B9ECFF0A3DC
:0607F800EFF022AFEF223A
:10080000C0527408C0E0C082C08375520AE5FF542C
:10081000CF4490F5FF22C0527408C0E0C082C0836C
:10082000755220E5FF54CF4490F5FF22C052740862
:10083000C0E0C082C083755236E5FF54CF44A0F5B6
:10084000FF22C0527408C0E0C082C08375524CE5DC
:10085000FF54CF44B0F5FF2290800401169081062A
:10086000011690810901169084A6011690A5B60183
:100870001690A6FD011690A70D011690A75E011611
:1008800090A76A011690854401169097D0011690A2
:10089000AE17011690BFDF011690C061011690C31C
:1008A00054011690C84A011690CFE6011690C9C6A9
:1008B000011690CA06011690A675011690BB350167
:1008C0001690B192011690B020011690B929011628
:1008D00090D042011690D0BD011690D80401169018
:1008E000B499011690B756011690B249011690D0EE
:1008F00066011690DC52011690B78E011690DCF15D
:10090000011690BB84011690D872011690D23F0157
:100910001690C6EE011690A482011690A6980116B4
:1009200090DFD6011690E043011690B46E01169048
:10093000E41A011690E436011690CE69011690E48F
:1009400044011690E6B7011690E629011690CEAD47
:10095000011690E70B011690E729011690D6D501F4
:100960001690D7CC011690CECE011690E73F011617
:1009700090AE3F011690AB67011690E77501169097
:100980009CC8011690BC7C011690D5F0011690D63B
:100990003F011690D5EB011690E842011690BEA6D5
:1009A000011690E346011690E299011690E8AE0117
:1009B0001690B059011690E350011690E32E0116DF
:1009C00090AC91011690A5B9011690E9030116901B
:1009D000D770011690D6A0011690D6CC011690D7EC
:1009E000E8011690E919011690B1AC011690AF29F3
:1009F000011690CFCB011690E934011690E97B01E6
:100A00001690E661011690E98A011690EB6D0116C9
:100A100090CE3C011690B3CF011690873B01169003
:100A2000ADE70116909D620116909D0E011690850E
:100A300082011690DBB5011690E9F9011690EBFAE8
:100A4000011690EC07011690A7B4011690ABF001C7
:100A5000169081ED011690E8B7011690ACD60116FC
:100A600090EC3F011690EC53011690ECD3011690D8
:100A70009D7B011690ECE9011690CD9F011690EC3C
:100A8000EC011690ED34011690ED37011690B3C3CA
:100A9000011690E3B8011690CF51011690CF2101B5
:100AA0001690ED6101169086F50116909C3901169D
:100AB00090E138011690E0EE011690DE6501169087
:100AC000A4E4011690EE00011690BD2B011690BB18
:100AD000D80116909E67011690EFAA011690EFB705
:100AE000011690DE29011690DE99011690DDF401C1
:100AF0001690EFF4011690F025011690F04C0116B7
:100B000090F080011690F11B011690F0D401169020
:100B1000F14201169080140116908256011690F150
:100B20005101169098000116909875011690F16584
:100B3000011690857001169083D0011690F19701EF
:100B40001690BE3A014290B5E9014290B7A4014225
:100B500090BA47014290C062014290BD8601429026
:100B6000BF49014290C09D014290C0C4014290C063
:100B7000D9014290C0DF0142908E8E014290C12D7A
:100B8000014290C1BD0142909EC2014290C1CA0182
:100B900042909F70014290A746014290C263014279
:100BA00090C26F014290912E0142909006014290B6
:100BB000C2EA014290921A014290945F014290A5CC
:100BC0003A0142908000014290C366014290C37E88
:100BD0000142908588014290C37F014290C39701F2
:100BE0004290C466014290AEC8014290A792014271
:100BF00090C5C8014290C5D5014290C5E10142901F
:100C0000C5E7014290C5EA014290B474014290C622
:100C100000014290B738014290C478014290C63733
:100C2000014290B009014290C61B014290B5B60145
:100C30004290B242014290C645014290C6830142B1
:100C400090B6E1014290BFBB014290B3B401429023
:100C5000C4CE014290C3E6014290C6FA014290B070
:100C6000A6014290B2BA014290C452014290C59D81
:100C7000014290C445014290BED8014290B944015E
:100C80004290A0B8012C90A0DD012C90A0D1012CA5
:100C900090A277012C90A2E9012C90A285012C90C2
:100CA000A2FB012C90993E012C90A293012C90A1C3
:100CB000B6012C90A213012C90A2A1012C909F3E72
:100CC000012C90A2AF012C90A2BD012C90A1470154
:100CD0002C90A2CB012C90A311012C909BFB012CFA
:100CE000909E5D012C90A385012C9082D7012C90C1
:100CF000A45D012C90A45E012C908000012C909B9F
:100D000088012C909C45012C9098E0012C909883B0
:100D1000012C90A481012C00E709F608DFFA804637
:100D2000E709F208DFFA803E88828C83E709F0A3A6
:100D3000DFFA8032E309F608DFFA8078E309F20887
:100D4000DFFA807088828C83E309F0A3DFFA806485
:100D500089828A83E0A3F608DFFA805889828A8331
:100D6000E0A3F208DFFA804C80D280FA80C680D4FB
:100D7000806980F28033801080A680EA809A80A803
:100D800080DA80E280CA803389828A83ECFAE49335
:100D9000A3C8C582C8CCC583CCF0A3C8C582C8CCC3
:100DA000C583CCDFE9DEE7800D89828A83E493A3E3
:100DB000F608DFF9ECFAA9F0EDFB2289828A83ECD0
:100DC000FAE0A3C8C582C8CCC583CCF0A3C8C5824D
:100DD000C8CCC583CCDFEADEE880DB89828A83E485
:100DE00093A3F208DFF980CC88F0EF60010E4E602B
:100DF000C388F0ED2402B4040050B9F582EB24025C
:100E0000B4040050AF2323458223900D6873BB01C7
:100E10000689828A83E0225002E722BBFE02E32297
:100E200089828A83E49322BB010B89828A83F8E05A
:100E3000C828F0E822500327C722BBFE07F8E3C802
:100E400028F3E8228A838982E49322BB010CE5829D
:100E500029F582E5833AF583E0225006E92582F8F8
:100E6000E622BBFE06E92582F8E222E58229F58228
:100E7000E5833AF583E49322BB010989828A83F8EA
:100E8000E028F022500327F722BBFE05F8E328F301
:100E9000228A838982F8E4932822BB010FF8E58235
:100EA00029F582E5833AF583E028F0225009C582CE
:100EB00029F8E58226F622BBFE09C58229F8E2253B
:100EC00082F222F8EA2583F583E9932822BB010602
:100ED00089828A83F0225002F722BBFE01F322F8B6
:100EE000BB010DE58229F582E5833AF583E8F0221E
:100EF0005006E92582C8F622BBFE05E92582C8F224
:100F000022EF8DF0A4A8F0CF8CF0A428CE8DF0A411
:100F10002EFE22BC000BBE0029EF8DF084FFADF049
:100F200022E4CCF875F008EF2FFFEE33FEEC33FC33
:100F3000EE9DEC984005FCEE9DFE0FD5F0E9E4CE69
:100F4000FD22EDF8F5F0EE8420D21CFEADF075F038
:100F500008EF2FFFED33FD4007985006D5F0F22241
:100F6000C398FD0FD5F0EA22C2D5EC30E709B2D51F
:100F7000E4C39DFDE49CFCEE30E715B2D5E4C39FCD
:100F8000FFE49EFE120F13C3E49DFDE49CFC80036E
:100F9000120F1330D507C3E49FFFE49EFE22C5F075
:100FA000F8A3E028F0C5F0F8E582158270021583F9
:100FB000E038F022A3F8E0C5F025F0F0E5821582D4
:100FC00070021583E0C838F0E822BB010A89828AE2
:100FD00083E0F5F0A3E022500687F009E71922BB71
:100FE000FE07E3F5F009E3192289828A83E493F589
:100FF000F074019322BB010789828A83020F9E50FD
:101000000B09C5F027F7C5F01937F722BBFE0D090C
:10101000F8E325F0F3C5F019E338F322F889828A62
:101020008374019325F0C5F0F8E4933822BB010ADC
:1010300089828A83F0E5F0A3F0225006F709A7F031
:101040001922BBFE06F3E5F009F31922EF2BFFEEA0
:101050003AFEED39FDEC38FC22C3EF9BFFEE9AFE21
:10106000ED99FDEC98FC22E88FF0A4CC8BF0A42C39
:10107000FCE98EF0A42CFC8AF0EDA42CFCEA8EF0A6
:10108000A4CDA8F08BF0A42DCC3825F0FDE98FF08D
:10109000A42CCD35F0FCEB8EF0A4FEA9F0EB8FF084
:1010A000A4CFC5F02ECD39FEE43CFCEAA42DCE350C
:1010B000F0FDE43CFC2275F008758200EF2FFFEE96
:1010C00033FECD33CDCC33CCC58233C5829BED9A74
:1010D000EC99E58298400CF582EE9BFEED9AFDECD2
:1010E00099FC0FD5F0D6E4CEFBE4CDFAE4CCF9A818
:1010F0008222B800C1B90059BA002DEC8BF084CF20
:10110000CECDFCE5F0CBF97818EF2FFFEE33FEEDF6
:1011100033FDEC33FCEB33FB10D703994004EB9920
:10112000FB0FD8E5E4F9FA227818EF2FFFEE33FE33
:10113000ED33FDEC33FCC933C910D7059BE99A4068
:1011400007EC9BFCE99AF90FD8E0E4C9FAE4CCFB80
:101150002275F010EF2FFFEE33FEED33FDCC33CCD4
:10116000C833C810D7079BEC9AE899400AED9BFD5D
:10117000EC9AFCE899F80FD5F0DAE4CDFBE4CCFA70
:10118000E4C8F922C3E49FFFE49EFEE49DFDE49CD5
:10119000FC22EB9FF5F0EA9E42F0E99D42F0EC6400
:1011A00080C864809845F022EB9FF5F0EA9E42F0FB
:1011B000E99D42F0E89C45F022E8600FECC313FC87
:1011C000ED13FDEE13FEEF13FFD8F122E8600FEFF1
:1011D000C333FFEE33FEED33FDEC33FCD8F122BB1D
:1011E000010789828A830212215005E9F80213D986
:1011F000BBFE05E9F80213E522E0FCA3E0FDA3E055
:10120000FEA3E0FF22E493FC740193FD740293FEBD
:10121000740393FF22E0F8A3E0F9A3E0FAA3E0FB54
:1012200022ECF0A3EDF0A3EEF0A3EFF022A882856C
:1012300083F0D083D082121244121244121244124C
:101240001244E473E493A3C583C5F0C583C8C58283
:10125000C8F0A3C583C5F0C583C8C582C822A4252C
:1012600082F582E5F03583F58322E0FBA3E0FAA363
:10127000E0F922EBF0A3EAF0A3E9F022E493FB7497
:101280000193FA740293F922BB010789828A8302CF
:10129000126A5005E9F80213F1BBFE05E9F80214E1
:1012A0000389828A8302127CBB011A89828A83D0D5
:1012B000F0D0E0F8D0E0F9D0E0FAD0E0FBE8C0E010
:1012C000C0F00212735016E9F8D083D082D0E0F952
:1012D000D0E0FAD0E0FBC082C0830213FABBFE1656
:1012E000E9F8D083D082D0E0F9D0E0FAD0E0FBC0BA
:1012F00082C08302140C22BB010DE58229F582E530
:10130000833AF58302126A5007E92582F80213F145
:10131000BBFE07E92582F8021403E58229F582E580
:10132000833AF58302127CBB0120E58229F582E530
:10133000833AF583D0F0D0E0F8D0E0F9D0E0FAD0ED
:10134000E0FBE8C0E0C0F00212735018E92582F813
:10135000D083D082D0E0F9D0E0FAD0E0FBC082C0E8
:10136000830213FABBFE18E92582F8D083D082D01D
:10137000E0F9D0E0FAD0E0FBC082C08302140C2276
:10138000D083D082F8E4937012740193700DA3A3FC
:1013900093F8740193F5828883E473740293686010
:1013A000EFA3A3A380DF8A838982E473EC8EF0A489
:1013B000CCC5F0CCCDF8EFA4CEC5F02DFDE43CFCBF
:1013C000E8A42EC8C5F03DFDE43CFCEFA4FFE5F029
:1013D00028FEE43DFDE43CFC22ECF608EDF608EEC8
:1013E000F608EFF622ECF208EDF208EEF208EFF262
:1013F00022E6FB08E6FA08E6F922EBF608EAF60828
:10140000E9F622E2FB08E2FA08E2F922EBF208EA46
:10141000F208E9F222902B975121902B9B51739067
:101420002B9731F9902B84E024FFFD902B83E0343F
:10143000FF5EFEED5FFF902BA0EEF0A3EFF04E609D
:101440006CF1E1C3902B84E09FFF902B83E09EFE24
:10145000902BA0F0A3EFF0902B9EF1EA9FEC9E5012
:1014600006A3ECF0A3EDF01207B912221BF0602CDA
:10147000124C59C004C005C006C0071207B9E94A9A
:101480006006124C4BFF80027F007E001207B912EB
:101490004DAFD007D006D005D004D1CB120792E9CA
:1014A0004A6004F1E180737E007F00806D902B9E86
:1014B000D1906071902B83F1EAEF9DEE9C400A90F1
:1014C0002BA0ECF0A3EDF0800D902B9EE0FFA3E0AD
:1014D000A3CFF0A3EFF01207B912221BF0602C1279
:1014E0004C59C004C005C006C0071207B9E94A60DC
:1014F00006124C4BFF80027F007E001207B9124D8E
:10150000AFD007D006D005D004D1CB120792E94A5C
:101510006004F1E180047E007F00902B9CEE8FF050
:10152000120F9E8088D322C0E0C0F0C083C082C06A
:10153000D075D000C000C001C002C003C004C00507
:10154000C006C007902F09E5FFF075FF02E5D43013
:10155000E60D75D440902D54D1906003124D8F75D7
:10156000FF02E5D430E50D75D420902D56D1906062
:1015700003124D8F75FF02E5D430E40A75D410D103
:101580008D6003124EE475FF02E5D430E30D75D48F
:1015900008902D54D1906003124EF775FF02E5D4E8
:1015A00030E20D75D404902D56D1906003124EF7A1
:1015B00075FF02E5D430E11875D4021223B4EF6050
:1015C0000FD18D6005124EB680061223821223AC15
:1015D00075FF02E5D430E00F75D401D18D60088F1E
:1015E000828E837F0771AA75FF02E5D530E40F75FF
:1015F000D510D18D60088F828E837F0371AA75FF0D
:1016000002E5D530E10A75D502D18D6003124DC5D2
:1016100075FF02E5D530E00F75D501D18D60088FDB
:10162000828E837F0471AA75FF02E5D530E20F75C3
:10163000D504D18D60088F828E837F0A71AA75FFD1
:1016400002E5D530E70F75D580D18D60088F828E89
:10165000837F0871AA75FF02E5D530E60F75D54086
:10166000D18D60088F828E837F0971AA902F09E047
:10167000F5FFD007D006D005D004D003D002D001AA
:10168000D000D0D0D082D083D0F0D0E032902D588E
:10169000E0FEA3E0FF4E22EFF4045FFFE4FEEF70F4
:1016A000037FFF22EFD3940F4009EFC4540FFFEEE6
:1016B0004404FEEFD39403400AEF1313543FFFEEAC
:1016C0004402FEEF30E1010EAF0622902C41512181
:1016D000902C455173121E7B121CD0EF6005121E18
:1016E0008A80F5121D12902B7DE0FF121E6C6402A1
:1016F0006008902C41121F50F13C902C41121F4663
:10170000F13C902C4131F9E48021902C48124DD8C5
:10171000601D902C45516AE94A600E120E0EFFF1D1
:101720003C902C461228C580E1E4FFF13C80DB129E
:10173000180C902B7E7401F02231F9E4E5C820E208
:10174000FB8FEB227F01121811902F0D7401F09086
:101750002F0DE06032121E74F1D5902F0DEFF012B4
:101760001C37F1C3902B7BEFF0121C37902F0DE04C
:101770005401124F7260D8A3E0F460D3EF30E7CF8A
:10178000E4902F0DF080C8121D217F9FF13CF1D510
:10179000902B7CF1D3902B81F1D3902B8212180ADD
:1017A000902B7AE0F4601BA3E0F46016902B81E0AC
:1017B000FD541F240FA3F0EDC41354074480902B55
:1017C00081F022121D217FD7F13C7FFFF13CF1D93E
:1017D000902B7AEFF07FFFF13CE5C820E2FBAFEB06
:1017E00022902BA0E0FEA3E0FF22E0FCA3E0FDD3CB
:0717F0002275FF028FE322C6
:061800000202F58FEF2249
:101808007FB8EFF0121C37E4FFEFB4010443FE2069
:101818002253FEDF22EFC36001D392ED22E490074A
:101828003FF02202285775FF028FD675FF02AF05D9
:101838008FD77F0180DFF194B401027F012275C840
:0218480001227B
:0F184B000228CCAB05E4FCFD902DC6EBF0A1808C
:10185B00021527E475FF02AFD4CDEFCD75FF02AFB4
:10186B00D5EFFCEDCEECCEFF22902ED1EFF0E4A322
:10187B00F0902B88E0FFB40209740FF13674B9F0C5
:10188B00800CEF64047041743DF1367479F0D1BF74
:10189B00902ED1E06007902B87E0FF80027FAB1288
:1018AB00173C9137902ED1E0902B87F07016902E2D
:1018BB00D2E0D39400400D7FFF12173C902ED2E064
:1018CB0014F080EAE4FF11112275FF0275E404E4C1
:1018DB00F5E475FF02E5E630E011901215E0540CCB
:1018EB00600971C8901215E054F7F01203DC124531
:1018FB0003900736EFF0901200E0B47A14901214B4
:10190B00E0B49C0D900736E0FF64056004EFB40370
:10191B002EE4900740F0900740E0FFC394805013F3
:10192B00E42FF582E43412F583E4F0900740E004F1
:10193B00F080E3901200747AF0901214749CF01201
:10194B000B644003120B5F7B017A1279107D017FD0
:10195B0001120B5A7B017A1279117D017F21120B37
:10196B005A7B017A1279127D017F22120B5A7A125D
:10197B00791D7F0212276E90121DE0B401057F01C5
:10198B00124B81120B00124503120AFB900736EF24
:10199B00F0120BF5120AF1900736E0FF120CF4EF80
:1019AB0024FFB3926575FF0253E6BF122834120B66
:1019BB000A12243320650C1223ED7B017A2779253B
:1019CB001209987F011206BCD2AF206502415C124E
:1019DB000B691208A3120CEF120B5540F29007354E
:1019EB00E0603E120B2DEF7004F1D34034E5147020
:1019FB00FCE51520E503123CE312085DEF70FA716C
:101A0B00A2500471B450047F011174900735E0B4F7
:101A1B000204E4FF8009900735E0B403047F0191D1
:101A2B0019120B28E51530E1A6F1A44002E4F0E50C
:101A3B001520E5057175123AF4F1C5AF82AE83EF4F
:101A4B00C0E07183900738E0FDD0E0FF120BEB2173
:101A5B00DA122811113EEF7006900735E0604D2029
:101A6B001C03200947120B2DEF7004F1D3403DE509
:101A7B001470FCE51520E503123CE312085DEF70D2
:101A8B00FA71A2500471B450047F011174900735A0
:101A9B00E07011113EEF600C122424901215E044FB
:101AAB0008F08008900735E0FF1244BD900735E041
:101ABB00600C201C09300906200203120970120B5E
:101ACB00691208A312427F122404122412EF702011
:101ADB00F18CEF600471C88034113EEF702F12420D
:101AEB005CEF7029F1B9EF6401702212241D801D87
:101AFB00901215E020E216F18CEF600C71A25004ED
:101B0B0071B45004E4FF1174E490073FF0203005EA
:101B1B00120B2880221208B790072EE0FEEFC39E0F
:101B2B004005EF9EFF800890072EE0F4042FFF7412
:101B3B0006D39F5002C230E51530E126F1A44002D6
:101B4B00E4F0E51520E5057175123AF4F1C5AF82A5
:101B5B00AE83EFC0E07183900738E0FDD0E0FF1259
:101B6B000BEB120AC9122822415C900737E0FD7576
:101B7B00F0AA90074512125EED75F002A42430F91D
:101B8B00740735F0FA7B012275FF02EFF452D4751E
:101B9B00FF02EDF452D522900001740193B40007BB
:101BAB00E493B41802C322D3227F017E009017FC6A
:101BBB00E4935EFE7401935F4E24FFB322F16670D3
:101BCB000790121CE0700122F16660237FFF120068
:101BDB00369012161211F9EF24FFFFEE34FFFEEDD3
:101BEB0034FFFDEC34FFFC901216121221800D9085
:101BFB00121CE0FF120036E490121CF0901235E03C
:101C0B00FD7F011244D69012341245C07F0143FB75
:101C1B001075FF0243E640EF600D75FF02E5E12012
:101C2B00E7FB43FB0D800343FB0E80FE124CEEEFF4
:101C3B0070FA902B81E0F4600A902F0C7406F0F18F
:101C4B003E70FC902B7FE01213801C71041C7914E6
:101C5B001C7E151C83171C93301C98341C9D361C42
:101C6B00A23700001C8B433410853480802F433502
:101C7B001080084335208003433580853590801DC7
:101C8B004336208536A08015433701800D4337102E
:101C9B00800843374080034337808537B0902F0C43
:101CAB00740CF0F13E70FC22D17B91D0EF6004D12B
:101CBB008A80F7B1127F0112173C7F0312173C91F8
:101CCB0037E4FF01117F011111305815D174121730
:101CDB00D5902F0EEFF09137902F0EE020E002C23F
:101CEB00583058191217C3902B7BEF124F72600BA1
:101CFB00A3E0F46006EF30E702C2589137E4FF111E
:101D0B0011A258E433FF227F011111D258B1217F68
:101D1B000612173C9137902B7FE01213801D440461
:101D2B001D4C141D51151D56171D66301D6B341D92
:101D3B0070361D753700001D5E5334EF853480807F
:101D4B002F5335EF80085335DF800353357F8535AF
:101D5B0090801D5336DF8536A080155337FE800DDE
:101D6B005337EF80085337BF800353377F8537B026
:101D7B007F0CDFFE22902DC2121221902DC2121168
:101D8B00F9B1D7902DC6E06F6040D17B91D0EF6059
:101D9B0004D18A80F7B112902B7DE0FFD16C6402E5
:101DAB006008902DC2F15012173C902DC2F14612D3
:101DBB00173C902DC2121739902DC6E0FF12173C1D
:101DCB00110C902B7E7401F0D322C322902DBD12E7
:101DDB001221D17B91D0EF6004D18A80F7D164645A
:101DEB00026008902DBDF15012173C902DBDF146AD
:101DFB0012173C902DBD1217391217D5902DC1110A
:101E0B000A902DC1E0FF22902C4A121221902C4EE9
:101E1B00121273D17B91D0EF6004D18A80F7D16419
:101E2B0064026008902C4AF15012173C902C4AF136
:101E3B004612173C902C4A121739902C51124DD840
:101E4B0060111217D5902C4E124D79902C4F1228F1
:101E5B00C580E79137E4FF01117F011111B1217F9B
:101E6B000312173C902B80E022B1217F0502173C17
:101E7B0075FF02E5E430E10675E40675E40322E53F
:101E8B001530E20FE51520E50AE51530E0057F0179
:101E9B001206BC22902B7AE020E018D1BF7F3D12B6
:101EAB00173C7F2A12173C7F8012173C7FA6121714
:101EBB003C110C227F011111A121902DEF121273F5
:101ECB00902DF212228E943F4003743FF075FF0267
:101EDB00E5CD20E141E5FD254A04543FFFE5DD5406
:101EEB003F6F602A902DF21222375022902DEF1265
:101EFB00126A854A8212204FAEFD122333543F24BF
:101F0B008EF582EC3406F583EFF0054A80C7E5FDCC
:101F1B00254A543FF5FDAF4A22902F30EFF07B015D
:101F2B007A2F79307D01D1C57F0122902ED2F0908E
:101F3B002B8722902F0CE014F0E0221211F9780875
:101F4B001211B9E4221211F978101211B9E422D14D
:101F5B007B91D0EF6004D18A80F722E4FFFEFDFC79
:101F6B00901216121215C30211A8902694E075F068
:101F7B0016A424E9F9741F35F0FEAF01E4FCFDA1B2
:101F8B00D7F194B402027F012290073FE07F002239
:101F9B00C2AFEFF45215D2AF227F02F19B900737FD
:101FAB00E0900740F090073704F0C3940222200D15
:101FBB00061227AA7F01227F0022900740E0FD75C1
:101FCB00F0AA90074502125E900742E0FEA3E0FFE5
:101FDB001208BCD3EF94C8EE940022902DF312128A
:101FEB0073902DF6EDF0E4F54A75FF02EDD3941FD7
:101FFB004003741FF075FF02E5CD20E23EE5C925D5
:10200B004A04541FFFE5DE541F6F6027902DF651D5
:10201B00375020902DF312126A854A82114FAEC9A8
:10202B007133541F24EEF582EC3406F583EFF00583
:10203B004A80CAE5C9254A541FF5C9AF4A22121274
:10204B006A1E8E82758300020E4B902DA811C6E579
:10205B008F20E0FB11CDE4FF902DA812126A8F8226
:10206B00114FF5930FEFB410EFE4FF902DAB12125D
:10207B006A8F82114FF5940FEFB410EF22902C6EF4
:10208B0011C6E58F20E0FB11CD7E10902C7111490C
:10209B00F593EE70F67E10902C6E1149F594EE7060
:1020AB00F67F0111DD712AEF70FB7E10902C7412FC
:1020BB00126A1E8E8251FCEE70F22212127375FFA1
:1020CB00012275FF01538F0675FF01538FF075FFCA
:1020DB000122EFB40107711B4401F58F2275FF013B
:1020EB00E58F54F04406F58F22902A671212219047
:1020FB002A6B121273E4902A90F0D3902A6FE0941B
:10210B0020902A6EE094004001227B017A2A79709C
:10211B00902A6E713EF0902A671211F9121E1290DE
:10212B002A6B12126AE94A600B902A90E0F5821131
:10213B004FFF80027F00902A90E02470F582E434F8
:10214B002AF583E06F6002C322902A90E004FFF02F
:10215B00D3902A6FE09F902A6EE0940050C12251D9
:10216B0011121273E4902BBCF0A304F0902BB91254
:10217B0016907002410BD3EF9420EE940040047F35
:10218B00208006902BB9A3E0FF902BBBEFF0902B98
:10219B00B612126A902BBBE0FF902A6EE4F0A3EF0D
:1021AB00F0902BB21211F911F4400E902BBCE0FF02
:1021BB00A3E0FEEF4E902BBCF0902BBBE0FFC39047
:1021CB002BBAE09FF0902BB9E09400F0902BB21259
:1021DB001215902BBBE4FCFDFE12104C5111121288
:1021EB006AE94A6007902BBBE0FF80027F00902BCF
:1021FB00B7E48FF0120F9E902BBDE025E0F0217716
:10220B00902BBCE0FF22902BB2121221902BB62206
:10221B00902BA0E0FFA3E0902BB9CFF0A3EFF090B1
:10222B002B971211F9316A902BA4EF22E0FFE54AAC
:10223B00C39F22902DF7121273902DFA518E943F5B
:10224B004003743FF075FF02E5CB254A543FFFE591
:10225B00DB543F6F6020902DFA51375019ADCB51A5
:10226B00E6543F244EF582EE3406F583E0902DF7CD
:10227B0051EE054A80D2E54A600625CB543FF5CB9B
:10228B00AF4A22EDF0E4F54AEDD322902DFB12126A
:10229B0073902DFE518E941F4003741FF075FF0237
:1022AB00E5CC254A541FFFE5DC541F6F6020902DB1
:1022BB00FE51375019ADCC51E6541F24CEF582EEAA
:1022CB003406F583E0902DFB51EE054A80D2E54AAA
:1022DB00600625CC541FF5CCAF4A22ED254AFF7E74
:1022EB0000EF22FF12126A854A82758300EF020EFD
:1022FB00DF758300E593020EDF902ECC11C6E4FF51
:10230B00902ECC12126A8F8251FC0FEFB410F12277
:10231B0075FF01E58F54F622711B4408F58F22756A
:10232B00FF01E58F5401FF22FFE54AFDEE2DFD7CF9
:10233B0000ED22E0FFA3E0902C51CFF0A3EF227B26
:10234B00017A2F79057D01513E902F05E0FF227513
:10235B00FF02E5DB543FFFE5CB543F6F7F0060028C
:10236B007F012275FF02E5DC541FFFE5CC541F6F84
:10237B007F0060027F012275FF0153CCFD43FB40C0
:10238B0071A2759E0143FB0975FF03859E9E75FF28
:10239B0003859E9E7F012275FF0243D20175FF03C9
:1023AB002271A2E4F59E7F012275FF02AFD3EF7F6E
:1023BB000030E6027F0122AD07901215E054FCF0CD
:1023CB00E0FFED54307E0060027E02EF4E9012155E
:1023DB00F0E0FFED7E0030E0027E01EF4E90121533
:1023EB00F0229007417402F0900734E0FF120CF9D1
:1023FB0071C29007417405F02290073FE0FF120C69
:10240B00EA900744EFF022900744E07F0070027FD0
:10241B00012290073F7401F02290073F7402F022D3
:10242B00121F9470027F0122B14D120B1E120BF082
:10243B00120B6E900736E06401700281F37FFF127E
:10244B0008949009351212737E007F15121F87BFF7
:10245B00540E7E007F16121F87BFA5047F018002DA
:10246B007F00900734EFF064017053900935F184CD
:10247B007A09793B7402F11B90093BE0FEA3E0FF64
:10248B0090093512126AF17CE92407F9E43AFA90C3
:10249B000938121273E92408F9E43AFEAF017B0103
:1024AB007A09793B7402F11590093BE064067004DC
:1024BB00A3E064046008120899900734EFF09007CA
:1024CB0034E070247E007F10C006C374269410FE87
:1024DB0074389400902CF0F0A3CEF0F175D0061266
:1024EB0007D5E4FFFE12089E120A33120984120963
:1024FB0002306505754B01802EF18E1208621207B2
:10250B00DCFE4FFDA3E0FC4DFDA3E0FB4D600BEEAD
:10251B005FFFEC5FFFEB5FF470031206E090073B8D
:10252B00E0654B90072FF0E4902CD5F0902CD3F076
:10253B00A3F002001275FF0275E40475E40175E463
:10254B0002227B017A2B797F7D017F03120B5A7A52
:10255B002B79887F08F16E7A2B79857F09F1057AC3
:10256B002B79837F0BF105902B831216906006BE9F
:10257B00FF16BFFF13F10C50028004F1238009906A
:10258B002B83E4F0A37440F0F10C50028008902BE5
:10259B00807403F08006902B807402F0902B7FE008
:1025AB0012138025CA0425D51425DD1525E517251D
:1025BB00FB30260334260B36261337000025F07527
:1025CB00FF015330EF8530FD804775FF015331EF2D
:1025DB00800E75FF015331DF800675FF0153317F8C
:1025EB008531C9802C75FF015332DF8532CA8021BA
:1025FB0075FF015333FE801675FF015333EF800EC9
:10260B0075FF015333BF800675FF0153337F85334D
:10261B00CB121C377F11D1F7E4FF12187412174439
:10262B00902B7D7402F0902B81E0247F6009047065
:10263B0016D1FD740A8007121E9FD1FD7458F090BD
:10264B002B807403F0F123902B82E0F46002C1F431
:10265B00902B85E0FEA3E0FF64104E7006902B825A
:10266B00740EF0EF64204E7006902B82740FF0EF17
:10267B0064404E7006902B827410F0EF64804E70A5
:10268B0006902B827411F0E4B5070AEEB4010690A4
:10269B002B827412F0E4B5070AEEB40206902B827B
:1026AB007413F0E4B5070AEEB40406902B8274148D
:1026BB00F0E4B5070AEEB40806902B827415F0E42B
:1026CB00B5070AEEB41006902B827416F0E4B5072A
:1026DB000AEEB42006902B827417F0E4B5070AEECD
:1026EB00B44006902B827418F0021CB3EF4420F513
:1026FB00FE227F10D1F7902B7D227B017D02020BF6
:10270B005A902B88E024FE24FD22902D5FF0803020
:10271B007B01902D5FF08028902B837401F0A3E454
:10272B00F022902E6CE075F005A42411F9742B3572
:10273B00F0FEAF017B017A2A7997902D5F7405F03B
:10274B00902D5C121273E4FCFDC007902D5C1212ED
:10275B006A902D5FE0FF902C51E4F0A3EFF0D007CF
:10276B00021E127B017D01020B5A7B007A0079005D
:10277B0022C3E99FF9EA9EFA2212126AAE02AF0156
:10278B0022C20A7B007A00794B902D631212730BD5
:10279B007A0779392275FF0275E404E4F5E422D255
:1027AB00091208B7900742EEF0A3EFF02290099FB1
:1027BB00EFF0A3EDF05402901234F0121FB9EF704A
:1027CB0002C32290099FE0B40412A3E0FB7D017FBA
:1027DB00011245C690099F7403F080069009A01260
:1027EB0045C090099FE0900735F0D32290072FE06A
:1027FB0064AA2411FFF022AE071227F7EE04FEEFB6
:10280B008EF084AFF02230310D12092AEF6007C22F
:10281B005E120916C2312290073D1216906009CA4A
:10282B00EECAC9EFC91213A622D2ADD2BD75FF02F3
:10283B00758E71754C0975FF02E58E546F4480F5EA
:10284B008E902DFF12122D0000000022C0E0C0F070
:10285B00C083C082C0D075D008C0FF75FF02E58E63
:10286B0030E43A75FF02E58E54EF4410F58E902D4F
:10287B00FF1211F912331AFC902DFF121221900046
:10288B000011C5E54C30E0020539E54C700D754C77
:10289B00090547E547700205468002154C75FF0296
:1028AB00E58530E40875FF024385100550D0FFD055
:1028BB00D0D082D083D0F0D0E032E475F001020F9B
:1028CB009EC0E0C0F0C083C082C0D075D008C0FFEE
:1028DB0075FF01E5D530E6047F028009E5D57F0061
:1028EB0030E7027F018F18E5186402600221A4E52E
:1028FB0014121380291801292B0229910829360952
:10290B0029410A294F0B296D0C00002AEF75FF0195
:10291B0075C355151AE51A600241EF75140241EFA4
:10292B0075FF0175C3F075140941EF75FF0175C390
:10293B005575140A41EF75FF019004EFE0F5C3756F
:10294B00140B41EF75FF019004DCE0F5C375140126
:10295B00751A149004FD124DCE600241EF75140CE4
:10296B0041EFAB1CAA1DA91E123C25AD16AF1FF1E2
:10297B00F4D15675FF00F1EB43FA0475FF00123AE0
:10298B00ED75140841EFC2EB751400431504123DAD
:10299B005C400241EF11C541EFE518640160024153
:1029AB00EF124809400241EFE510706B711E1212D5
:1029BB006AE5D9120ECD7112E09004FFF01247E5D3
:1029CB00123D1A9004DBEFF09004FFE0FFD3940963
:1029DB00500241749004DBE0D39402400CEFD3948B
:1029EB00AA7F0040027F01800D9004FFE0D394404A
:1029FB007F0040027F01EF6002806E9004FFE0F5E4
:102A0B001612432C90121AEFF075FF009004FFE0A2
:102A1B00F5D975100341EFE5106403600241EF71C6
:102A2B001E12126A710AE5D9120ECD75FF009004C1
:102A3B00DBE0C39403E5D350055402FF800354013C
:102A4B00FFEF602930E111C39004E9E094FF90049B
:102A5B00E8E094FF5013800FC39004EBE094FF90D9
:102A6B0004EAE094FF500211C5D19F8077C25771E1
:102A7B002A75FF00D1D4E5D120E0FBC2EB43150250
:102A8B007103A3E0FF90073AE0FEEF6E7102E09056
:102A9B00073951FCA3A3E090073B51FCA3A3A3E090
:102AAB00FE90073CE0FDEE6D4F6011C39004EDE02E
:102ABB0094FF9004ECE094FF500211C5C39004E71F
:102ACB00E094FF9004E6E094FF500211C5751000EE
:102ADB009004DBE0B4030715167112E516F09007AE
:102AEB0038E516F0D0FFD0D0D082D083D0F0D0E034
:102AFB0032FEE0FDEE6D4FFF85128285118322E9D8
:102B0B002401F9E43AFA22E5122407F582E435119F
:102B1B00F5832275FF01F5EA75EAFF9004DF229039
:102B2B002F0BE5F4F0E0547FF5F47F827E00D1EAC1
:102B3B00D1E3D1C65005E5FC20E6F7305708902FBE
:102B4B000BE04480F5F4D1DDD1C65005E5FC20E661
:102B5B00F775FF01E5D520E702C322E5F4D330E694
:102B6B0001C322900964121273D24DC2EBE51460BB
:102B7B0002A1F1E51530E202C322B1FAD18FE412C2
:102B8B000ECD123E39900964D1495407FF9004DDF4
:102B9B00F0123C3E900967EFF0E51520E07512301E
:102BAB002140057F011206BC900967E0FF7B017A8B
:102BBB00097968F119E4337004D2EBA1CB90096762
:102BCB00E024AD124F43E0FF900968E0D39F4043F0
:102BDB00D2EB123D6AA23A92ED9004EEE06016B190
:102BEB00FAD18F7401120ECD431504124EED79FC00
:102BFB001208C1D3229004FCE070167B017A047991
:102C0B00FC7C307D01902D137464F0E4A3F012086A
:102C1B00C6C3221230215004C257712AD1D1E5D13B
:102C2B0020E0FBE4F510900964D1495407C39403E9
:102C3B00E49400502EB1FA24B1D142B1F924D8D189
:102C4B00422FFFE433FED3EF9440EE648094804038
:102C5B0012B1FAD18F7402120ECD431504A23A921F
:102C6B00EDD322B1FA2408F9E43ACFE9CFF5118F6D
:102C7B0012B1FA24B1D142F516AE11124C96B1FA3B
:102C8B0024B2F9E43A8B1CF51D891EB1FA24D8D174
:102C9B0042F51F900964D149FDACF05460602FB12F
:102CAB00FA24D9D142FF123D2EC24DD132FB7A000C
:102CBB009004FD124F3B7D18120F01EF2BFFEA3EE4
:102CCB00FEEF2414FBE43EFA7D027F01A1B79009CD
:102CDB0064D14954079004DDF0751408B1FA24B29D
:102CEB00F9E43AFA123C25B1FA24D8D142FFAD16D9
:102CFB00F1F49004DDE0640370237B01FDD102D37A
:102D0B00D19650057401120E78E4F5FFF1EB120E1B
:102D1B000E2428FBE433FA7D03E4FFA1B79004DD16
:102D2B00E06402702BD105D3D196400574FF120ECF
:102D3B0078E4F5FFE5D25480440AF5D2120E0E2446
:102D4B0014FBE433FA7D027F01123D85D156805F7F
:102D5B00E4FB7D01D102D3D196400574FF120E78AE
:102D6B00E4F5FF900964D149441045F07F056002FA
:102D7B007F0AEF547FFFE5D254804FF5D2E4F5FF85
:102D8B0043D280D132FD7C00900964D14944104577
:102D9B00F07E0060047F0A80027F05EF25E0FFEEE6
:102DAB0033FEEF2DFBEE3CFA7D017F01123D85904A
:102DBB000964D149FFAEF0A24D924C123AA54006E0
:102DCB00A23A92EDC322124EED79FC1208C1900982
:102DDB0067E0B1F924E5F9E43AFAEF120ECDA23A25
:102DEB0092EDD2EBD322A23A92EDD2EBC322FF901B
:102DFB00096412126AE922FFD15B90096412126A0C
:102E0B00E924B1F9E43AFA120E0EFF90096412129A
:102E1B006AE924D8F9E43AFA120E0E2FFFE433FED6
:102E2B00EF2401FFE43EFE90096412126AE924B21A
:102E3B00F9E43AFAE92407F9E43AFA020E0E12120F
:102E4B006AE92404F9E43AFA020FCAE4FB7D01FFB4
:102E5B00E4F5FF75D102E5D120E0FBE4F5FFF5D1F8
:102E6B00EF6008E4F5FF43D2808006E4F5FF53D210
:102E7B007FEB6006E4F5FF43D104ED6006E4F5FF5C
:102E8B0043D1082224E3F9E43AFA229FEE6480F856
:102E9B0074809822C257712AD1D1E5D120E0FBE48E
:102EAB00F5FF75D9089004DBE07F00B403027F01C6
:102EBB00123AE5D257712AE4F5102275FF03E5911A
:102ECB00C330E701D322E4F5FFE5D154FE4402F50C
:102EDB00D1227FE87E03D1EA75FF034391802290D4
:102EEB002E0B124E837A2E790D1237655014902EBD
:102EFB000DE0FEA3E0FF902E0CE09F902E0BE09ECA
:102F0B00400B902E0BE0FEA3E0FF1236D522902E45
:102F1B001BEFF0A312462675FF01F1B3EF640160BE
:102F2B0002C322E5F430E602C3227FE87E031236A9
:102F3B00D5D1E3F19D400122C257712A902E1BE09F
:102F4B00FF123B7C53F4DFD257712A7F787E00123D
:102F5B00370D75FF0153E4BFE5E430E7FB12432265
:102F6B007F8A1237C930E608902E1CF1E2E4800A02
:102F7B0075FF01902E1CF1E2E5D9120ECD75FF0104
:102F8B0043E440124F7A400343F420F19D40012269
:102F9B00D322E5F730E50FE5F754C07004D1C640F6
:102FAB00F112374BC322D3227FFA7E001236D5D1D2
:102FBB00E3E5FC30E604D1C640F7E5FC30E6037FE1
:102FCB00032275FF01E5D530E6037F0222E5D57FAD
:102FDB000030E7027F0122E0FBA3E0FAA3E0F92235
:102FEB00E5D254804414F5D222E4F5FF8FD4F5FFDB
:102FFB00CFEDCF8FD522E49004FCF09004EE04F0DB
:10300B00221230215006F1EC50028001C322C2EB98
:10301B00A2ED923AC2EDE5F4C330E701D322902B37
:10302B00EE124626902BF412122D00000001902B6D
:10303B00F87401F0F5FFE5D554C07004112150026E
:10304B00C322E4F5FF53967F75FF0175D5047F3FCF
:10305B00FEB1F975FF0143D508E4F5FF5394FBF579
:10306B00FF53847FF5FF7598FF902BF2E5F4F07515
:10307B00F49C75FF01A3E5E4F075E4257B017A2B45
:10308B0079F81245F3902BF8E0640160022156F5B4
:10309B00FF902BF17414F0902BF43186FF78011212
:1030AB0011CC902BF4121221E5A730E1FB43A702C0
:1030BB00902BF43186FFE5A730E005E47B0180021D
:1030CB00E4FBFAF9F8EF4BFFEE4AFEED49FDEC4855
:1030DB00FC902BF4121221902BF1E014F070B890AD
:1030EB002BF43186FF78101211B97B6D7A4E79C6AD
:1030FB007841121067EF2439FFEE34307120FCE475
:10310B00FBFA7901F81210F2EE547FFEE4FDFC128B
:10311B003C31902BF43186FFEB6FFFEA6EFEE8CD6E
:10312B00EFCDCCEECCECFF902BEE122FE2EF120E8C
:10313B00CD902BEE122FE2900001ED120EDF9012CC
:10314B000FE030E606E4F5FF75968075FF01E4F5B8
:10315B00D5902BF2E0F5F475FF01A3E0F5E41246F0
:10316B007D902BF8E0B40103D38001C322EB25E063
:10317B0025E02401F582E43412F583E0FCA3E0FDA5
:10318B00A3E0FEA3E022902AB912122175FF02439D
:10319B00E180F19DF17A902ACE12122D002DC6C03E
:1031AB00E4F5FFF5A490120EF0A3F0902AC9740277
:1031BB00F0F1B9FFF595EF14601814602624027036
:1031CB0036902AB93186FF902ACA121221902AC54D
:1031DB008020902ABD3186FF902ACA121221902A94
:1031EB00C6800F902AC13186FF902ACA12122190F5
:1031FB002AC7E0902AD2F01247AE902AD2E0700F85
:10320B00F5FFF59675FF0175D70975F41880599080
:10321B00120EE004F0902AC9E0123C0B902ACE313A
:10322B0086FF902ACAF1DAC31211A8500A902ACA53
:10323B003186FFA3121221902AD2E0FF12462F9063
:10324B002AC8E0FFA3E0FDA255925312475CA331BD
:10325B0086FF902DB9121221902AC9E0FF9135906B
:10326B002AC9E03179FF91DEF1D1600221BC7402F1
:10327B00F0F1B9F595E5F454077016902ACE51FE8E
:10328B0091D1902AC9E0FB91C31212213178FF91A1
:10329B00DEF1D170DC75FF03759580124F7A400318
:1032AB0043F420A255925412468E902ACE31862496
:1032BB0020FFEE344E7120FCE4FB7A04F9F8710E1A
:1032CB0091D1C252B10CE4F5FFE5BD54F84404F5BD
:1032DB00BD9012137401F07E127F01E4FD8F828E7C
:1032EB0083EF2D124F6AFC901213E02CF00DEDB40E
:1032FB0012EB22FF7E04FDFCE0F8A3E0F9A3E0FA59
:10330B00A3E0FB121067E47B7DFAF9F81210F2EFE1
:10331B002401FFE43EFEE43DFDE43C22902CE4124C
:10332B0048AEEBF0902CEA7401F0C256122EDD126F
:10333B002EC65005E5FC20E6F6122FB3BF0108E4BC
:10334B00F5FC75FC408008122FB3BF0202D3227527
:10335B00FF0153D8EF902CE5E0FF1247BB75FF013F
:10336B0053D5DF53FAFB902CE4E0FF123B7C902CFF
:10337B00E5E0902CE4B4080AE031792452711DFC8D
:10338B008004E03179FF91DE902CE6E0FFF1E675E9
:10339B00FF0175FF03759B04122EDD75FC42E5FCE6
:1033AB0020E105122EC640F3902CE7E0F075FF03E9
:1033BB00E59B20E705122EC640F3E59B20E70C7535
:1033CB00FF03759B1FF19DD256804C91D71245F38D
:1033DB00902CE5E0FD90120FE05D701C902CE4E06A
:1033EB00FF91D712391590120FE0FF902CE5E0FEFC
:1033FB00EF4E90120FF051DCD1F27B017A2C79E871
:10340B00F165500FC3902CE9E09420902CE8E094E8
:10341B000340E791D7F1F3B1FE305602612F902CA8
:10342B00EAE0B40103D38001C322902DB8EFF0E49E
:10343B00A351FE91D1902DB8E0FB91C312122190B4
:10344B001210E064806070E0C3947F5038EB91C33E
:10345B00C083C0823186FFEEC0E0EFC0E090121057
:10346B00E075F004A4AEF0FBCAEECAEA3395E0F9BE
:10347B00F8D0E0FFD0E0FEC3EF9BFFEE9AFEED9994
:10348B00FDEC98802A902DB8E091C3C083C082F1E7
:10349B00DA901210E0F40475F004A4FFAEF0EE33F2
:1034AB0095E0FDFCEB2FFFEA3EFEE93DFDE83CFC21
:1034BB00D082D0831212212225E025E02401F5824F
:1034CB00E43412F58322FC78010211B97B017A2CCA
:1034DB0079EA22902E0F12122175FF01902E0FA365
:1034EB00E0FDA3A3124E9D8FE1902E0FA3A3E0FE50
:1034FB00A3124E938FE2902E0FA3A3A3E0FF8FE3B3
:10350B0022902B1D121221E4F5FF75BB0575BB85AF
:10351B0075FF0175D5022052077F3FFEB1F9D1F23D
:10352B0075FF0143D520305202A1CEE4F5FF538E37
:10353B00F7438E077D04E4F5FF8DBCF5FF43B10225
:10354B00E5B130E2FBE4F5FFAFDFEFFEACDEECFB09
:10355B00EBFFED25E0241BF582E4342BF583F152D0
:10356B00F5FFF5FF53B1FD0DEDB40CCA902B1D31DA
:10357B0086FF78091211B9A3F152FDED25E0242540
:10358B00F582E4342BF583E0C313FAA3E013FBB10C
:10359B00E81248A32BFFEE3AFEB1E8EEF0A3EFF0F2
:1035AB00ED240490120DF0EDC394075016CFEDCF20
:1035BB000DEFB1E9124EAF902B22E09F902B21E043
:1035CB009E50B8E4F5FF758EC8F5FF90120DE0F52F
:1035DB00BCE4F5FF75BB8075FF01F5D522ED25E049
:1035EB002423F582E4342BF583227F147E00D1D57E
:1035FB00122EE375FF03E59120E7FB22E4902E13D7
:10360B00F0A304F0E4902E16F0E5FA30E1FB75FF21
:10361B0001E5D530E7037F0022E4F5FF75E508757A
:10362B00FF0153D8EFE5D530E61A75FF01902E1543
:10363B00E5DAF0E4F5DA75FF01E5D630E3FB902E21
:10364B00167401F075FF03759B0475FC4175FF0340
:10365B00E59B30E7FBE4FB75FF038B953178FF911E
:10366B00DE0BEBB403F175FF03759580E4F5FF7585
:10367B008EC8D1F275FF0153D5FBF14BB1F575FF38
:10368B000143D504902E16E07006F14B7FC8B1F7BD
:10369B007B017A2E7914F1F3902E14E0902E137097
:1036AB0006E04404FF8002E0FF902E13EFF090122F
:1036BB000EE0B4010675FF0143D81075FF01902E83
:1036CB0015E0F5DA902E13E0FF2275FF03D3EF948C
:1036DB0002EE9400400874FE2FFF74FF3EFEEFF5E0
:1036EB0092EE540FF59122E4F5FF75C2E17F1EF1C6
:1036FB00C930E707E4F5FF75C2A122E4F5FF75C2F7
:10370B008122CDEFCDCCEECCF159AB94EF4BF1C187
:10371B00CBEFCBFAE59130E719F15CA994E9F5828F
:10372B00EF4582FFEB124F2BC3EF9582E5F09583AC
:10373B0040E2E59120E708CEECCECFEDCFB1F922F8
:10374B0075FF03E4F59122EEF0A3EFF0E42275FF91
:10375B0003AF93EF75F010A4FF22F159AD94EF4D29
:10376B00F1C18FF012102DE591C330E701D322F197
:10377B009353DB7F75FF0175D502B1F5F19343DBF5
:10378B008075FF01E4F5D52275FF01438E1075FF9F
:10379B000122E5FA30E1FB75FC8075FF0153D5EF93
:1037AB00E4F5FC75FC40F14BE5FC20E6FB2275FFD4
:1037BB0003902AC9E02224FBFFE5F034FF22FEF13F
:1037CB000D90120FE022902AC9E0FF14F0EF22E0D7
:1037DB00F8A3E0F9A3E0FAA3E0FB2275FF018FDA6F
:1037EB0022E5F754E024FF22C25175FF03759B1F9E
:1037FB0075FF0390120FE020E71BE59A540FC3945B
:10380B00024012E04480F0E4F5FF75C2A143FC04D2
:10381B0075FF03D251E5FC30E609E59A540FC394CA
:10382B000540CDE5FC30E611E4120ECD75FC80F5BC
:10383B00FC75FC40E5FC20E6FB3051031232DC2228
:10384B00AF14EFC36001D322EFC3940E5005900465
:10385B00DEEFF022E517540FFF22E517C394F0506B
:10386B001F5317F0118EFE740FC39F4005EE940E7D
:10387B00400543170D8003EF4217E517540FFF2246
:10388B007F0022E517C4540FFEEF900583932E2281
:10389B00118EFFC3940E40027F0DEF90056593FFD1
:1038AB0022EF30E303AF1322AD1B203B04EE30E0DD
:1038BB000BE517C394F0502011E68018E51960064C
:1038CB00FDE4F5198012E517C394F0500BE517547E
:1038DB000FFF6004119BAD07AF05229004DEE0FDE6
:1038EB00FFC3740E310EEFC4F8540FC868FFEEC45B
:1038FB0054F048FEE51754F0C3122E967F00500289
:10390B00AF05229FFFE49400FE22902E17EDF0905E
:10391B001211E0F46005A3E0B4FF0C902E1974189B
:10392B00F0A37413F08010901211E0902E19F09008
:10393B001212E0902E1AF0120E0E64016002417FFB
:10394B00902E17E0FE64086004EEB40408902E1865
:10395B007428F08006902E18743AF0EF123179FF2C
:10396B00121184E45180EF24D8FFEE343FFEED3486
:10397B0093FDEC3416FC7B007A80790378001203FC
:10398B00989131902E1AE0FF902E19E0C3310EE47E
:10399B00FCFD121067ECC0E0EDC0E0EEC0E0EFC044
:1039AB00E0902E1AE0FFE4FCFDFE5180D0E0FBD04E
:1039BB00E0FAD0E0F9D0E0F8EB2FFBEA3EFAE93D74
:1039CB00F9E83CF8902E18E0FFE4FCFDFE121067BE
:1039DB00EF2454FFEE340B123320FCE47BA87A1651
:1039EB00F9F8120398CBEFCB902E17E014605D140F
:1039FB00601B24FE600C24FC707AE4F5FF75CE315D
:103A0B008006E4F5FF75CE21F5FF8BCF22E4FAE4B7
:103A1B00F5FFEA2440F5CEE4F5FFEAFFC374073166
:103A2B000E74B42FF58274053EF583E45188C39D63
:103A3B00F5CFE4F5FFEA2448F5CEE4F5FFEA90056F
:103A4B00B451882DF5CF0AEAB408C422E4F5FF750A
:103A5B00CE01F5FF8BCFF5FF75CE0EF5FFEB25E015
:103A6B00F5CFE4F5FF75CE0FF5FFCFEBCFEB75F090
:103A7B0003A4F5CF227B64FAF9F80210679325E0D3
:103A8B00FDE433FCEB75F010A4FFAEF0120F13CD79
:103A9B00EFCDEBFFE4C313EF13224315015315DFF7
:103AAB0011AC71B84004E4F5142243FA045315FB2E
:103ABB00304C0451EA800A7F5551CE7F5551CED2FE
:103ACB00EBD32275FF01E5D520E602C322E5FA54BC
:103ADB000360FA75FF018FC3D322717C43FA04E4B0
:103AEB00F5FF53D1FD43D10122AF82AE837D01900F
:103AFB00094C9113E51470781230195005C2571206
:103B0B002B2A90094CE0FEA3E08E11F512A31212A2
:103B1B006A9004DF121273AE11AF127DAA7197E493
:103B2B00F5FF75D908F510E5155421602BE5153017
:103B3B00E504E4FF717CE4900951F0900951E00435
:103B4B00F0123607EF6009900951E0C3941040EB77
:103B5B007F02120D125315DE9004DBE07F00B403DD
:103B6B00027F0151E5D257122B2AD2EBA23A92EDEA
:103B7B002275FF01E5D530E602C322E4F5FF439A37
:103B8B0080EF910BE4F5FF539A7FD322E4F5FF7599
:103B9B00D102E5D120E0FBE4F5D1F5FFEF911CEE6E
:103BAB00540F42D6E4F5FFCFEDCF8FD4229009917D
:103BBB00EFF09004DDE0FF913E900992EFF090045E
:103BCB00DDE024FD60130470089009907404F0800C
:103BDB000E9009907408F080069009907402F07FA3
:103BEB0001120D12900992E09009909104E4902C2F
:103BFB00E7F012332750EDD322FFE0FDA3E0FB22C9
:103C0B0033333354F8F5F422EEF0A3EFF0A30212A2
:103C1B0073F5D7E4F5FF53D6F022E4F5FFE9911CD9
:103C2B00EA540F42D622C8ECC8C9EDC9CAEECACBBA
:103C3B00EFCB22EF24FD600680007E018002E4FEC4
:103C4B00AF0622900741E0B4020D8F1B90051DE0DB
:103C5B00F513120B05D322C32290098D1212739107
:103C6B0094E51B9191122B0A9190E92402918CE916
:103C7B00919AE5139191E92404918C91A4E4020E9D
:103C8B00CDF9E43AFAE4120ECD90098D02126A24B2
:103C9B0003F9E43AFA2212126AE92405F9E43AFA32
:103CAB0022E51754F0C4540F2FFFC3941040027F2A
:103CBB000FEF90057393FF227E10EE60091EEE90BE
:103CCB00057393B507F4EEC3940E40027E0DEE9090
:103CDB00056593FF22E4F514E51470291230195091
:103CEB0005C257122B2A12379D7F08120D12122E66
:103CFB00D1E5D120E0FB4315205315FEE4F510A2CE
:103D0B003A92EDD322C322C2AFEF4215D2AF22EFCC
:103D1B0024FE600C24FE600580007F01227F0222BE
:103D2B007F0322751401751A139004EFEFF09004C2
:103D3B00DD7402F0ED9004FD30E507E4F0A3743A76
:103D4B00F022E4F0A374E6F022B15C50031228C514
:103D5B0022C39004E3E094FF9004E2E094FF22C3BB
:103D6B009004E5E094FF9004E4E094FF50031228E4
:103D7B00C5229004FDE0A3E0FF22900993EFF0ED44
:103D8B0024FE60191460262402703BEB2402FFE42E
:103D9B003AFE7C007D50120F017D60801EB1F9C38D
:103DAB0033CE33CED8F9FF7C007D28800EB1F9C31A
:103DBB0033CE33CED8F9FF7C007D64120F139009FC
:103DCB0094EEF0A3EFF0900993E0D104C083C0828E
:103DDB00121215900995E02401FF900994E034002C
:103DEB00FEE4FCFD12104CD082D083021221EB2496
:103DFB0001FFE43AFEEF78032225E025E024F0F5FD
:103E0B0082E43404F58322EFD1041211F90211DF9D
:103E1B00E49004F0D1309004F4D130FFFEFDFC901F
:103E2B0004F8021221FFFEFDFC121221E42290077E
:103E3B0039E0F4FFA3E06FFFA3E06FFFA3E06FFF98
:103E4B0064556009EF644A6004EFB40A010F9004F3
:103E5B00DCEFF022A2EB924EC2EB7A0479E27B010B
:103E6B007D0CE4FF120858A24E92EB22A2EB924F6C
:103E7B00C2EBEBC0E0EAC0E0E9C0E07B017A047979
:103E8B00E2D1A1D0E0F9D0E0FAD0E0FB7F0C120830
:103E9B0085A24F92EB22902CFD021273902E0312EF
:103EAB001273F17E902E03F101902E06F0D1FBD10F
:103EBB00A17B01F1A4902E06E0B40119D1FBE924FA
:103ECB0001122E42902B4EF074FE120ECD902B4D04
:103EDB007405F08015902E06E0FF64066004EFB4C5
:103EEB00070D902B4DE06002F107D1FB120CFE2267
:103EFB00902E0302126A12126A020E0E7401F090D7
:103F0B002B4DE0640270207C3E7DA77F011209A738
:103F1B007E3F7FD2C006C007E47FD07E07FDFCF159
:103F2B00ADD007D0068069902B4DE064037017FF6E
:103F3B00FEF193902B51E07C3E7DA7B402047F03EE
:103F4B0080117F02800D902B4DE0B4040B7C3E7DE5
:103F5B00A77F041209A7806F902B4DE0B4010BF1E2
:103F6B008CF17EF176E4902B4DF022901215E054FB
:103F7B0003F022902B52E0FF1208ADE4902B52F08D
:103F8B0022E4FDFCFF0209A7FDFC902B4902122144
:103F9B001208B2902B52EFF0227A2B79537F060244
:103FAB000885902C89121221E4902C8DF022C003ED
:103FBB00C002C0017B017A2C79D1D1A1D001D002F2
:103FCB00D0037F02020885F17E902B4DE0B4020AEC
:103FDB00F18C902B4D7403F0E10A902B4DE06403B0
:103FEB00707C902B4FE06058902B51E0B401051280
:103FFB000AE7800A902B51E0B40203120AEC902BD3
:10400B004FE014F0E060201227F7EF75F04684E5DF
:10401B00F075F064A4FFEF24A0FFE5F0340FFEE48D
:10402B0033FDE433FC8007E47FA07E0FFDFC902C76
:10403B00891212217E3F7FD2E4902C8DF0023F9BA0
:10404B00902B4D7401F0123F0A902B5474FDF0909D
:10405B002B537407F07B017A2B7953020CFE902BB8
:10406B004DE0B4040F5115EF6007122775E4FF8084
:10407B0004120AE7225133EF70087FA07E0FFDFC7C
:10408B002120511D902B48EFF07406D39F4068E020
:10409B00605B31947E00902B48E014FDE5F0A805A1
:1040AB00088005C333CE33CED8F9FF318D123F953F
:1040BB00902B49121215C000C001C002C003902BF7
:1040CB0048E014FF74107E00A807088005C333CEA8
:1040DB0033CED8F9FFEE3395E0FDFC318512106736
:1040EB00D003D002D001D00012104C80283194AFF5
:1040FB00F07E00318D801E902B50E0FF600FE4FCB2
:10410B00FDFEFB7AF47901F812106780087F007EC0
:10411B00D07D077C00123F9531E87E3F7FD2C006F1
:10412B00C007317F123FADD007D006123F9B5127FE
:10413B00EF7040317F3185D31211A84007E47F0126
:10414B00FEFD8025317F31851210F2123F95317FB4
:10415B00E47B0131E15015317FC3EF9401FFEE9405
:10416B0000FEED9400FDEC9400123F94317F319DE5
:10417B001227AA22902B490211F9E47BE87A03F962
:10418B00F8227C007D640213AC1227F7EF75F0A0C8
:10419B008422902E0712122131DBE47BFF31E15098
:1041AB001CE431DA1210F2901216121221E47BFF8A
:1041BB00FAF931DA1210F290121CEBF0229012166F
:1041CB0012122D0000000031DB90121CEFF022F8D0
:1041DB00902E070211F9FAF9F8C30211A85115EF45
:1041EB006010E47FA07E0F123F93901215E054E70E
:1041FB00F022901215E0FF74E0D39F4005E02410ED
:10420B00F022EF6410901215F022901215E0540872
:10421B00FF22901215E0C4135407FF22901215E0F1
:10422B007F0030E0027F0122901215E05414FFBF93
:10423B0014047F0180027F0022902DB31212219073
:10424B002DB7E05402901234F0902DB31211F921D6
:10425B009D902B4DE0B4040D902B52E0600751273D
:10426B00EF7002FF22902B4DE0FF22902CD3EEF04B
:10427B00A3EFF022122FB3EF64017064712C902E18
:10428B00CFEFF0D394025058902CD5E0FF902ECF67
:10429B00E06F704C51EC902ED0EFF07B017A2E79C1
:1042AB00D07D01120BE6902ECFE024D1F582E434C1
:1042BB002CF583EFF0902CD5E0045401F070219095
:1042CB002CD3E07002A3E060177B017A2C79CF121C
:1042DB003FB97B017A2C79CF902CD371181213AA8A
:1042EB0022E4FFE5F754C06002801675FF01E5D5A7
:1042FB0030E30D711150F4710CEF60EF711150EB55
:10430B00227122AFD92275FF01E5E43322E0FEA32F
:10431B00E0FFF5828E832275FF01E4F5EA75EAFF73
:10432B0022E5F45418131313541FFF22901215E0B7
:10433B004404F022902CD6EFF0C250120A7EEF54B8
:10434B002364206025902B4DE0601F7B017A2C7934
:10435B00D7123EA1123FA4902CD77406F0A3E54BC5
:10436B00F07B017A2C79D7120CFE902CD6E07002E0
:10437B0061FF9111E06003123F07902CD6E0FFB470
:10438B000107902B5174018009EFB40311902B514D
:10439B007402F0123F76902B4F7404F0804EEF6452
:1043AB0004703A120A7EEF5423FFBF2014D25091AF
:1043BB001AEF7005123F767137902B4D7404F08015
:1043CB0037120A7EEF5432FFBF020C900736E0B46F
:1043DB000505E4F0120AE2123F767F0022902CD6FC
:1043EB00E0B40214E4902B4FF0123F76902B4D74F7
:1043FB0002F08004911104F0123F0A902B4DE07FE4
:10440B000060027F0122E4902B51F0902B4D229003
:10441B001215E07F0030E2027F0122902B47E0FF74
:10442B001208ADE4902B47F0229126E53864066024
:10443B0006E53864077030902B47E06003F4702773
:10444B00E4FDFC7F01120ABA7E447F34C006C0072C
:10445B007F587E807D047C00123FADD007D00612C2
:10446B0008B2902B47EFF0229026A1E070087B0159
:10447B007A26799991959026A1E044C0F09026A4D4
:10448B00919C9026A8E054FEF0227D107F23020B16
:10449B005AE054FEF0A3E044C0F0227405D39F50C1
:1044AB000B7463C39F4005902B50EFF0902B50E0A3
:1044BB00FF22902F0AEFF0BF0204E4FF8009902F38
:1044CB000AE0B403057F01121C1922EF7011ED6095
:1044DB000775FF0143AE012275FF0153AEFE22EFBC
:1044EB00B40114901235EDF0600775FF0143AE0275
:1044FB002275FF0153AEFD2275FF02E5E630E203A4
:10450B007F0322E5E630E3037F0022E5E630E1039B
:10451B007F0422E5E67F0530E0027F0122EF600792
:10452B0075FF0253E6BF2275FF0243E64022EF14EC
:10453B00600F146014240270188B8075FF018DFDC1
:10454B00228B9075FF018DC9228BA075FF018DCA3F
:10455B0022AF038FB075FF01AF058FCB22902CDEFE
:10456B00121273EF1460111460182402701EB1A2A2
:10457B00E580B1A8E5FD801CB1A2E590B1A8E5C925
:10458B008012B1A2E5A0B1A8E5CA8008B1A2E5B03E
:10459B00B1A8E5CB020ECD902CE102126A120ECD22
:1045AB0075FF01902CDE02126AE4F5FFAF9122E455
:1045BB00F5FFAF9222E0FB7D01E4FFEB600875FF96
:1045CB000153CDFD800675FF0143CD02ED60055310
:1045DB00FBDF800343FB20EF600775FF0243E140E5
:1045EB002275FF0253E1BF22902E63D1267F017CFF
:1045FB00127D01E4FE8D828C83ED2EF582E43CF579
:10460B0083E02FFF0EEEB412EC901213E06F600AF2
:10461B00902E63122FE2E4120ECD22EBF0A3EAF000
:10462B00A3E9F022EF30E00E43F401E4F5FF43A4DD
:10463B0004F5FF759624EF30E10E43F401E4F5FF2A
:10464B0043A408F5FF759624EF30E20943F402E426
:10465B00F5FF75961EEF30E30943F404E4F5FF759F
:10466B00961075FF01EF5403600475D7122275D7AE
:10467B002D22E4F5FF7584E6F5FF439404F5FF75F1
:10468B00981422E4F5FF75933F75FF03759A40D19B
:10469B007DE4F5FF759C93F5FF75A1A3F5FF75857B
:1046AB0031F5FF758628E5FA54304480F5FA75FF2D
:1046BB000175E74A75FF0275DF4975FF0143D304A6
:1046CB0075FF0153D367E4F5FF53E6BF75FF017523
:1046DB00D825F5FF75B503F5FF75B215F5FF75BA5E
:1046EB0002F5FF75AFB3F5FF75CD0AF5FF75CB0876
:1046FB00F5FF75CA12F5FF75BF0EF5FF75CC96F574
:10470B00FFF5BDF5FF75C281F5FF75AEE1F5FF75E0
:10471B00DA55F5FF75F580F5FF75E903F5FF75E9DA
:10472B0033F5FF75972A75FF01759B42759CA47530
:10473B009D29759E48759F2475A11275A312759AB4
:10474B00F820540CF5FF43968090120FE04440F094
:10475B0022CCEFCCCFEDCF74017E00C8EFC8088020
:10476B0005C333CE33CED8F9FFCDECCDEF5D601B57
:10477B0030531875FF0175DCAD75FF0175DDCDE4A8
:10478B00F5FF759A74F5FF7594842275FF0175DC3E
:10479B005375FF0175DD33E4F5FF759A14F5FF755D
:1047AB0094042275FF0175E46575FF0175D64722E8
:1047BB0075FF01E5D530E602C32253FACFEFB408FB
:1047CB000543FA308012EFB4040543FA208009EF59
:1047DB00B4020543FA108000D322E5F75406FFBF5D
:1047EB0006037F0822E5F75406FFBF04037F04226C
:1047FB00E5F75406FFBF02037F02227F0122E5F794
:10480B0054C024FF22902E1F11ABEBF0118CAC0087
:10481B00AD01AE02AF03C006C007902E1F11A3FB64
:10482B00AA06E4F9F8D007D006D31211927E0050F5
:10483B00047F0180027F00C006C007118CD0E02FDF
:10484B00FFD0E03E902E1FF0A3EFF053ECFC902E28
:10485B001FE0FCA3E0FDEC540342EC75FF02EDF509
:10486B00AF75ED0275ED04A3E0600543EC08800322
:10487B0053ECF7902E22E0600443EC042253ECFB44
:10488B0022902E1FE0FEA3E0FBAA06E4F9F87F803E
:10489B007E387D01FC020398E0C313FEA3E01322D4
:1048AB00EEF0A3EFF0A3EDF0A322902BD611AEEB1D
:1048BB00F07F02120B23902BDF121273EA494B602D
:1048CB005B902BD7E0FF312A51ADEF120ECDE49068
:1048DB0008B2F051A7316CEF600D902BD6E044423B
:1048EB00F0312A24D93132902BD8E0FF30E11B3143
:1048FB002A24BA3132EF54FC902BD8F0FE902C398D
:10490B00E054FDF0313B7D01800C902BD8E054FE40
:10491B00F0FE313B7D02120BB47F01227F0022900F
:10492B002BDF12126AE922F9E43AFA74FF020ECD78
:10493B00902BD6E0FF902BDCE09008F5F0A3EEF087
:10494B00902BDDE0FDA3E09008F7CDF0A3EDF09008
:10495B002BDF12126A9008F9121273902BD90212E4
:10496B006A902DEA121273E4902DEDF0A3F0902DC6
:10497B00EDE0FF902DEA12126A1208D5902DEDEFA3
:10498B00F0600B31A3EF6006902DEEE004F0902D5C
:10499B00EDE070DAA3E0FF22E0FFC263020A2E9083
:1049AB002BE3121273902BE2EFF0FE902BED7403BE
:1049BB00F0902BEAE05437F0E0FF5420902C3BF0C2
:1049CB00902C3AEEF0902BEBE0FDA3E0902C37CD42
:1049DB00F0A3EDF0902BE612126A902C3E1212739C
:1049EB00902BE9E0902C3CF0902BE312126A90088C
:1049FB00A1121273EF4420902C39F0E4902C3DF06F
:104A0B00C233F543902BE312126AAF431208D58FD2
:104A1B0043EF602A7D03120AA640E9902BE9E0D30D
:104A2B00941940037F0022AF43120AA15008902B28
:104A3B00ED7401F08008902BED7402F080C6902B82
:104A4B00E9E0FED3948240037F0022902BEAE0FB47
:104A5B00902BED30E0105193C003519B902BDCEE6B
:104A6B0051B4D00380205193519B902BE9E0902BB4
:104A7B00DCF0902C37E0FBA3E0902BDDCBF0A3EB2D
:104A8B00F0902BEAE0FB01B5E0FF902BE2E0FD227A
:104A9B00902BE612126A902BD90212739008A10286
:104AAB00126A24B6F9E43AFA22F0A3744AF0A3741A
:104ABB00BEF022EF6004902C3DF09008B2E0FF5165
:104ACB00A71208D59008B2EFF0604F20334C902C12
:104ADB003BE0C330E501D39236902C3AE0FD902CAD
:104AEB003E7132902C3CE09008E8F0902C39E0902D
:104AFB0008E9F0A3748051B49008B2E0FBE4FF1214
:104B0B000BBEEF7021902C3D7402F0902C37E0FE21
:104B1B00A3E0F5828E837F028009902C3DE0902CE0
:104B2B0037713B1213AA2212126A9008E502127314
:104B3B00FFE0FCA3E0FDF5828C8322C003C002C022
:104B4B0001902C3012126A902BE6121273902C33B8
:104B5B00E0902BE9F0902C34E0902BEAF0902C3580
:104B6B00E0FFA3E0902BEBCFF0A3EFF0D001D0024E
:104B7B00D003AF4B21AAEF600775FF0243E610226B
:104B8B0075FF0253E6EF22E5ED30E2FB75ED04AF66
:104B9B00EF22E5ED20E0FB8FEF22EF600443EC0406
:104BAB002253ECFB22EF600443EC082253ECF72278
:104BBB00E5ED5402FF22E5ED5404FF22E5ED54012F
:104BCB00FF22902B7CE0120ECD902B81E090000108
:104BDB00120EDF902B82E0900002020EDFAB07AAD1
:104BEB0006EB241FFFE43AFEEF7805CEC313CE137A
:104BFB00D8F9F9EB541F902F0FF0AF059150FCAF84
:104C0B000512169CAE01EE14C39FC43354E0F9AFEA
:104C1B0004C3EB9FFFEA9400FEE9FDC3EF9DFFEE9B
:104C2B009400FEED600FE0FD6007C374209DFD80D6
:104C3B00067D0080027D007C00EF2DFFEC3EFE2206
:104C4B00902BA4E0FF121697EFC43354E022902B65
:104C5B00A0E0FEA3E0FF902BA4E0FD71E8902BA257
:104C6B00EEF0A3EFF0A3E0FF121697EF75F020A480
:104C7B00FFAEF0E4FCFD902B9712121502104C9036
:104C8B002B7EE0FF22E4902B7EF022E4F5FFEFF584
:104C9B00D8E4F5FF53D60FEE540FC4F854F0C8E424
:104CAB00C4540F4842D622E4F5FF8FD422E4F5FF1B
:104CBB00E5D1540133333354F8FFE4F5FFE5D35416
:104CCB00074FFF22EFB40109D2AD75FF0143AE4090
:104CDB0022C2AD75FF0153AEBF22E5C85402FF756A
:104CEB00C80222E5C85404FF22E5C85401FF220282
:104CFB0008EEE4FF302F037402FF22200005D216CA
:104D0B000209DEC322902F31E0701C7BFF7A0479FD
:104D1B00867D23120B417BFF7A04796F7D17120B73
:104D2B0041902F317401F022020B4675FF01E58F84
:104D3B005408FF22EFB4010775FF0143AE20227523
:104D4B00FF0153AEDF22EFB4010775FF0143912042
:104D5B002275FF015391DF22121273902B14E05432
:104D6B000F22FDEF4DFFE5F08FF002102DFF121219
:104D7B006AEF020ECD2409F9E43AFA22F0A3F0A36C
:104D8B00F0A3F0228F828E837F010213AA29F9EC04
:104D9B003AFA020E0E75F01DA42463F9740535F072
:104DAB00FEAF0122E92FF9EE3AFA902BA2E0FFA316
:104DBB00E0902C48CFF0A3EFF0228F828E837F06FA
:104DCB000213AA74FFF5F0120F9E45F02274FFF543
:104DDB00F0120FB445F02212126AE92FF9EA3EFAEB
:104DEB0022E92402F9E43AFA021288D2357B017ADD
:104DFB0008799B22E4120ECD0429F9E43AFA22E950
:104E0B0024FFF9EA34FFFA020E0EF07B017A2779C0
:104E1B002922240AF9E43CFA020E0E90092AF0A387
:104E2B00EFF022E9242CF9E43AFA744022AF05F0B2
:104E3B00A3EFF022E92404F9E43A222404F9E43A3A
:104E4B00FAEF54F84402FF227A0879CE7F0422E964
:104E5B009582EA958322F0A3EDF0E4A3F0228D82F4
:104E6B008C830213AAAF03EAF0A3EFF022E9242DFF
:104E7B00F9E43AFA7D04E422EEF0A3EFF07B012291
:104E8B00E92420F9E43AFA22E4FFE4FDFC78080275
:104E9B0011B9E4FFFEE4FC78100211B9F090280F71
:104EAB007401F022E0FEA3E0FFC3228F828E837F8A
:104EBB00020213AAE92408F9E43A22240CF9E43A91
:104ECB00FA2275F005A424F3F97400227405F0E4BA
:104EDB00A3F022121273020E0E8F828E837F0502B5
:104EEB0013AAE49004EEF07B017A04228F828E8366
:104EFB00E4FF0213AA902D13F0A374FFF0227B01A1
:104F0B007A2D79B17F0222902D82ECF0A3EDF02265
:104F1B00FFAEF05407640322E92406F9E43AFA22BF
:104F2B002DF582EA3CF583227438F0A37426F02227
:104F3B00E0FEA3E0FF7C0022F582E43408F5832237
:104F4B00FF54F0C4540FFE227401F0AE04AF0522DF
:104F5B00AA06A9070213A6E0FFA3E0FEC39F22F552
:104F6B0082E43EF583E022F0902B7AE0FFF422906E
:074F7B00120EE0D3940122A5
:107F7E000200022B162FD0020604022FD23006006A
:107F8E003904060402300B380D08070506040238C2
:087F9E001238200013FF060455
:107FB000FFFFFFFFFFFFFFFF7FC600000000000084
:067FC000000003080000B0
:108000007B01E4FFAE051DEE6009EF120ECD12D02C
:10801000B580F122902E43123C16D1CD11FE4AC3F9
:108020006001D3400201FC12F2E75013E0FF940418
:10803000500280027F0411FEB174D1C712F36C901C
:108040002AED122E495467902B0011FD24DF514F69
:10805000902AFB11FD24E6514F902B0111FD24E7DE
:10806000514F902B0211FD24E8514F902B0311FD2D
:1080700024E4514F902AF911FD24E5514F902AFA3A
:1080800011FD24E9122E4F12F1F5EFF0902AED12B6
:10809000126AB170E4902AF011FD24DC122E4F45D3
:1080A000F06050902E43E0602BA312126AD1C77A81
:1080B0002A79F412A6DFD1E1C003C002C00111FE8B
:1080C00024DC122E4FF58285F083D001D002D0033C
:1080D000E4FF801CD1E1C003C002C00111FE24DC1A
:1080E000122E4FF58285F083D001D002D0037F019C
:1080F0001213AA129E51902AED12127322F0902AA6
:10810000ED12126AE922021CD0902D601212737EC9
:10811000007F14121F87902D63124D79902D6312EA
:108120003F01701004120ECDD1B5E94A60177E00F0
:108130007F08800AD1B5E94A600B7E007F10D1B577
:10814000740412271522902AED121273E924E351C8
:108150004F6017E4902B0411FD122B0B7401120ECB
:10816000CD7E0B7F0FFD7C00807C11FE2401514FE2
:10817000D39401403B120BAF902B04EFF07E0B7FAA
:108180000F11FE24B7514F30E71911FE24BB514F98
:1081900020E01011FE24BC514F12F389B504047D78
:1081A00007800911FE24B1514F12F3D07C008036B4
:1081B000E4902B04F07E0B7F0F11FE24B7514F305B
:1081C000E71911FE24BB514F20E01011FE24BC51D1
:1081D0004F12F389B504047D07800911FE24B151C3
:1081E0004F12F3D07C00020BAA7D01AF42300C533A
:1081F000ED6017E4FEB131E0B50709B131E4F0718B
:10820000C3E4F0220EEEB405EC22902632E0FDE449
:10821000FCFEB131E0B5070E71C3E0C394FF5023FB
:1082200071C3E004F02271C3E0FBEDD39B4004ADC9
:1082300003AC060EEEB405DAECB132EFF0EC71C42B
:108240007401F022C219902BA512126AE92402F9D6
:10825000E43AFA020E0E902E47121273E94AC360F6
:1082600001D34002613D902E47514930E01A713FE1
:1082700024B7514F540FFFBF0503D38001C34008FB
:10828000902E4712126A2146D1CD902E4712126AC3
:1082900012F2E75013E0FF9404500280027F047151
:1082A0003FB174D1C712F36C902E47122E49546718
:1082B000902B00713E24DF514F902AFB713E24E643
:1082C000514F902B01713E24E7514F902B02713E8C
:1082D00024E8514F902B03713E24E4514F902AF92A
:1082E000713E24E5514F902AFA713E24E9122E4F37
:1082F00012F1F5EF713E24E3514F902E4A7003F0D6
:1083000080037401F0713F24DC122E4F45F060258C
:10831000902E4AE0FFD1E1C003C002C001713F24AA
:10832000DC122E4FFDACF0F58285F083D001D00237
:10833000D0031213AA902E4712126AB17022F09045
:108340002E4712126AE92211FE4AC36001D350720D
:1083500011FE122B0B74FF120E78120E0EFFD39427
:10836000014007EF94035002804811FE2401514F51
:1083700064017046902AED122E49124F1B70331182
:10838000FE24B6514F654B702911FE24B7514F2082
:10839000E72011FE24B9514FD394405015200D12FF
:1083A00011FE124E46D1E811FE24B7514F4410126F
:1083B0000ECD902AED12126A8016E4902AF0F01287
:1083C0000BC322EE25E02432F582E43426F5832225
:1083D000900996121273900996123F01540F120ED3
:1083E000CD90099612126AE924E6F9E43AFA74018A
:1083F000020E78E53B600281A591C9E92404514F42
:1084000030E61691C9D1BBE475F06412102D91C904
:108410007406120ECDC234803F91C9E92405514F34
:108420004420FF91C9E9242912A47A91C9124E2E41
:1084300091C6124E78FF110491C9740591C6E924C2
:1084400004514F30E3067E037FE880047E077FD02F
:1084500091C9D1BBD1E8D23490046E5149FF900448
:108460006E12A45E514FFD91C9124E8BC003C00223
:10847000C00191C9E92406514F900902F091C9E960
:108480002404514F54F7900903F0A3740AF0A37425
:10849000C4F0D001D002D003120BB9EF700791C91C
:1084A0007407120ECD22902E661212737E007F1476
:1084B00012184E7E007F10902E6612126A12C46B44
:1084C00012076F7F0122120ECD90046E02126A9184
:1084D000C9E491C6E92405514F1460030470519119
:1084E000C9E9242C514F540F9009AFF090046E60ED
:1084F0002D12126AE9242B514FFF122802EFFD9032
:1085000009AFE014F075F064A42419FFE435F0CF4E
:108510002DCF3400FE91C9D1BBEE8FF0800812122E
:108520006AD1BBE4F5F012102D91C97402120ECD80
:1085300022EE25E02431F582E43426F583227A26E2
:10854000792B7F05902CFA121273AE071FEE601F75
:10855000902CFD123F01FE902CFA12126AEE120EC0
:10856000CD902CFB1228C5902CFE1228C580DB2252
:10857000E4020ECD24BDF9E43AFA22902D72E0FF18
:10858000D263902F1CEFF030631A902780E0FFD366
:1085900094004010EF940A500B9026A9E06402600A
:1085A000037F0022902F1C12AE02600B902F1C1232
:1085B0009D085460FF80027F0022E53B24FD60514E
:1085C0001460142403706E12EE645069C22891C9BD
:1085D000122B0A7401805491C912F1ADC003C0027C
:1085E000C0017B017A0479BBD1C7D001D002D0038E
:1085F0007F13B14491C9E92404514F54097002809A
:108600002D90121AE0FF91C9E9241312A47AD228FE
:108610002290046E12A45E514FB53C1990121AE0DC
:10862000FF91C9E92413F9E43AFAEF120ECD91C98A
:108630007407120ECD227D03AF42902EE5EFF0A31A
:10864000EDF030071D90270CE0B40E0B129E51E4A4
:10865000FF12CE69D20722902EE6E0640460550234
:10866000CE13D20712D61B740BF0902EE6E09026A4
:108670003FF090270CE0640E701D12D58812ADBF3C
:1086800012CD6E7409F0743912F4081299D5702461
:10869000FBFAF9FF02CE6912D58812ADBF12CD6E7A
:1086A0007409F0743412F4081299D57007FBFAF9C2
:1086B000FF12E43622902D6002126AE92407F9E4E1
:1086C0003AFA227A277925902CFD021273D1E17DA6
:1086D00013E4FF11047B017A2A79F47D057F7F0181
:1086E000047B017A2A79F122EE8FF002102DE0FF4F
:1086F00090280FE0FD902EF1EFF0ED24FE602114A4
:10870000602C14602E24037030129D725438641053
:10871000600A902EF1E0FF12ED615002D322C322D5
:10872000129D725438FFBF1003D38001C32212E898
:108730008B132212E88BA2E122C322902BA51212E6
:1087400073902BA8EDF07401C39D40030297CF9066
:108750002BA9123F01902BACF0E92401514F902B33
:10876000AEF0902BA95149902BADF012384B40FB45
:10877000121E8A12A71D120E0EFFC394204031EF65
:10878000D394FF502B902BA8E0FD949F5022902B68
:10879000ACE030E7030297CF514C902B17F0902BB1
:1087A000A912126A902D4312127312A71D020D0313
:1087B00012A71D120E0E640160030297CF902BAC1E
:1087C000E030E6030297CFE92401514F121380896C
:1087D000AC018F58028F6903910204919F058DC8E7
:1087E000068CE6078FF308904309909B0A90AD0B27
:1087F00092090D93AE0E90F60F95D11094491195F4
:10880000511294B813963415882A1697631990B9A3
:108810001A88D91F89462097C82289A023896D26E6
:1088200089992789AC28000097CFE541654B706E88
:1088300012B46EEF70030297CF90270C740BF012F6
:108840008246FF7B017A27796312B494D2051282A3
:1088500046FF12DBEA128246FF90278112EA5A1283
:10886000A5B99027857405F090270A740AF0A374BF
:1088700001F09026A97402F0128246FF902BAEE020
:10888000B5070CAD4B12D488129E51E4FF804712FD
:10889000824612F33F12D48812EB7802CFDF902782
:1088A0001DE020E0030297CFE54170030297CF124D
:1088B000824690278112CD65741612DF9E12ADB8E4
:1088C00012CD6E740AF0A374101299D2600302974D
:1088D000CFFBFAF97F0202CE3C12CD667420F01273
:1088E00082467053902727F0A304F012A45B1282F3
:1088F0004FFF33333354F8902BAFF012A71D124EB5
:108900003FFA902BAF12B7397023902BAF12AE0203
:10891000601B902BAF129E4F12ABF0902BAFE0FD7F
:10892000129E51E4902DA7F07F20120D0D902BAFD9
:10893000E014F070C68005E4902728F012ADB9125B
:10894000D644040297B790270CE070030297CF1229
:10895000E72012A45B12824FB4010B12E61212E55B
:108960008FAD3E12184E7D02AF42029760902BA849
:10897000E0FF7406D39F40030297CF902BACE054E6
:10898000DF12A71CE9240112A47A902BAEE0FD901F
:108990002DA77405F07F868183E5386406600D227B
:1089A000E53864046006E4902756F022902BA8E096
:1089B000C39406E4940050030297CF902756E0FF3B
:1089C00060209026A9E0B40314902BACE030E703BC
:1089D0000297CF902BAEE0FEEF6E600622E4902768
:1089E00056F01282465407C39403500B12A71D126F
:1089F0004E3FFAE4120ECD124D666401701830231A
:108A00001512A45B12824F5406FFBF020912F3B67F
:108A1000C221C22361DE300E028186902780E06091
:108A200002818612F3AD12A71D12EA62902BAEE00E
:108A3000FC902782F0902BACE0902786F07F1030DE
:108A4000E4027F00EF4401FF902BACE0FE54024FA4
:108A5000902785F012AE08704912A71DE924011273
:108A6000824FB4230EEE7F0070027F01EF30E403EB
:108A70000297CF20120A9026AEE030E1030297CF92
:108A800020080A9026AEE020E1030297CFE4902769
:108A900081F09026AEE07F0030E102AF04902B1809
:108AA000617012A71DE9240112824FB4230122E54F
:108AB0003864067002811312F3E06007EF6402600D
:108AC00002811330171812A69B6001227B017A27BE
:108AD000798D1286C77A08799B7F04128544A21784
:108AE00050028001C3401A20120A9026AEE030E105
:108AF000030297CF20080A9026AEE020E1030297F8
:108B0000CF90263CE020E00C124DF61286C7124EA4
