:020000040000FA
:1000000002180002180308F808FD0002180B0B3252
:0A0010000B3C2202181306500AE709
:07001B0002181B0AFB4AED6D
:060023000218237F0722F2
:07002B0002182B1216C82277
:0600330002183302182E32
:0E003B0002183BA24B9234220218430227D334
:0E004B0002184BA24C9237220218530243C9EE
:07005B0002185B75ED0422A1
:0700630002186375ED022293
:06006B0002186BAFEF224A
:1000730002187341073500C134C13741073400E02A
:10008300020200003843E0020200022FEDE0040206
:10009300000446524545E00102001554E001020008
:1000A30016A5E0E8022568FEFEFEFEFEFEFEFEFE4D
:1000B300FEFEFEFEFEFEFEFEFEFEFEFEFEFEFEFE5D
:1000C300FEFEFEFEFEFEFEFEFEFEFEFEFEFEFEFE4D
:1000D300FEFEFEFEFEFEFEFEFEFEFEFEFEFEFEFE3D
:1000E300FEFEFEFEFEFEFEFEFEFEFEFEFEFEFEFE2D
:1000F300FEFEFEFEFEFEFEFEFEFEFEFEFEFEFEFE1D
:10010300FEFEFEFEFEFEFEFEFEFEFEFEFEFEFEFE0C
:10011300FEFEFEFEFEFEFEFEFEFEFEFEFEFEFEFEFC
:10012300FEFEFEFEFEFEFEFEFEFEFEFEFEFEFEFEEC
:10013300FEFEFEFEFEFEFEFEFEFEFEFEFEFEFEFEDC
:10014300FEFEFEFEFEFEFEFEFEFEFEFEFEFEFEFECC
:10015300FEFEFEFEFEFEFEFEFEFEFEFEFEFEFEFEBC
:10016300FEFEFEFEFEFEFEFEFEFEFEFEFEFEFEFEAC
:10017300FEFEFEFEFEFEFEFEFEFEFEFEFEFEFEFE9C
:10018300FEFEFEFEFEFEFEFEFEFEFEFEFEFEFEE0AA
:1001930001022650FFE0010226A828E001022FBB3E
:1001A300FFE001022FE900E005022FEA2FED02062E
:1001B300044104DE060114004104DD014104DB01B6
:1001C300C13C011900011700C151412BA000412B73
:1001D3009500412B9E00412B9F00412B9CFF412BFF
:1001E300D5004128BE0041285F055D2AEA000000D2
:1001F30000000000000000000000000000000000FC
:1002030000000000000000000000C1424127400040
:10021300C111C129014000C125C126C127412EA416
:1002230005412F8B00C166432B3B000000412B3A55
:1002330000412B3E00412D06FFC138C13AC1454163
:100243002B6200015400C123C121412B5400412BD7
:1002530061006028261D0604000000030008F687DD
:100263007788CF7FC04FFBDFFDE067000080008011
:100273008680BA05E87300800F000060000041210A
:100283006600412179004121690041216201412138
:100293006C024121640141239E00412161014121FE
:1002A3006A114121630041239B00C149C14A41288E
:1002B300CF964128CB0FE002022FEF0039E0050271
:1002C30030230039040604E0020230280807E00561
:1002D30002382A0807050604E00202382F0013E05B
:1002E3000C0238310000030800030008060406046A
:1002F300E00502383D0013FF0604E0020238420025
:10030300000075819075FF03759E02120820021983
:1003130005020422900076E47E019360F4A3FF5467
:100323003F30E509541FFEE493A360010ECF54E070
:10033300B4E00EEFFAEEF9A3A3A3A3DAFDD9FB8091
:10034300D654C025E0604B5026E493A3F854072409
:100353000CC8C333C4540F4420C8834004F45680EC
:100363000146F6DFE480B00102040810204080E477
:1003730093A3FAE493A3F8E493A3C8C582C8CAC5B8
:1003830083CAF0A3C8C582C8CAC583CADFE9DEE74A
:100393008085E493A3F8E493A34003F68001F20875
:1003A300DFF402031AC2D5E830E70FB2D5E4C39BEA
:1003B300FBE49AFAE499F9E498F8EC30E717B2D53C
:1003C3001203DE121129E4C39BFBE49AFAE499F9C0
:1003D300E498F8800312112930D50DE4C39FFFE49C
:1003E3009EFEE49DFDE49CFC227890E4F6D8FD900B
:1003F30000007F007E10E4F0A3DFFCDEFA902F986C
:10040300A3E583C394204011FEAF829020000E0F1A
:10041300E48002F0A3DFFCDEFA12082002031722B5
:1004230032EF90042D93900800730A20364CE55563
:10043300FF22EFF5552209340939093E09430948DA
:10044300094D0952095C09610966096B097A097F3B
:100453000989099309A7CE5109B10A0B0A100A1594
:100463000A1A0A1F0A240A290A2E0A3D0A470A5BA6
:100473000A600A650A740A790AB50ABA0ABF090446
:100483000000020A000000070582022000000705A1
:1004930002022000000904010001020201000524F8
:1004A30000100105240100010424020005240600B4
:1004B30001070581030800200CA40CA90CAE0CB3A2
:1004C3000CB80CBD0CC20CC70CCC0CD10CD60CDB7D
:1004D3000CE00CE50CEA0CEF0CF40CF90CFE0D032C
:1004E3000D080D0D0D120D170000000000005A2D10
:0D04F3005761766520362E3034008FEF22E1
:100508001201000202000008580600020000000064
:10051800000109020000000100803204030409A25E
:1005280080CACF0998445CAD550641469503860BB1
:100538007300000000000500000600000010000025
:100548002428800000242080000011382100004465
:1005580028800000442080000034382100003F2417
:100568001E16110E0B09070504030201F0C8A79116
:1005780077676046383532302422201400010102A2
:100588000203030404050506060707000D45DA0003
:100598000D403000000000020C00013F3F3F040402
:1005A80004353535000000000C270C310C360C3BA7
:1005B8000C400C450C4F0C590C5E0C7C0C813D2FEB
:1005C80040E53DFA42D6822D1C16131110100BBEC1
:1005D8000BEB0BF00BF500030102060405E4FD7CB0
:1005E8000CAB050DEB9004F1938F828E83F00FBF57
:1005F80000010EDCEC01268F828E83E4F07406D1B4
:10060800217404D121A3A3E4F0EF2404F582E43E8D
:10061800F583E4F0A3745BF022A3F08F828E83A3AA
:1006280022902F6BEFF0902BE6E0B40110C2ED7A28
:100638002F796B902C8ED146120B9BD2ED227B0129
:100648001212AA7A2B79E722902BE6E0640170282F
:100658007B017A2B79E7120BA5EF701C902F6CF0B9
:10066800C2ED7A2F796C902C64D146120BA0D2ED92
:10067800902F6CE0FF120B6E227A0B7B7312B8DCA2
:10068800902BE67401F0FBD1AB7E067F5090073DBE
:10069800E0FCA3E04C700A90073DEEF0A3EFF0D326
:1006A80022C3227A2B79EF902D221212AA902D259F
:1006B8007401F0A37405F07A2B79E7020B967F0199
:1006C800D1D6902BE6E0B401047B01D1AB22EF60D8
:1006D8000E121BAFAF82AE83E4FD1233D68010300A
:1006E80034037F0022120B5F123BADE433FF227FFD
:1006F8000122E4FFD1D6EF6035F188122A4E50046A
:10070800F19D40F57B017A07793B122A4E500EF194
:10071800A55FFFA3E05FFFA3E05FF460E77F01D17F
:10072800D6754E017E007F08F188F18FF182229004
:10073800096C1212AA90096FEDF0E4A3F0ED54FED3
:1007480090096FF0602AE4FFD1D6BF012390096CAD
:100758001212A1122A4E501890096DF19690097044
:10076800E02402F0900970E0FF90096FE06F70DDFF
:100778007F01D1D6900970E0FF227404F002232A89
:100788007B017A07793922902D58E4F0A322E47589
:10079800F002020FD5900739E0C394C022900739C0
:1007A800E0FFA3E0227D02F137EFC36001D322E529
:1007B8001530E20EE51520E509E51530E0047F0166
:1007C800D1D622F1D8121CE1EF6004F1B780F622ED
:1007D80075FF02E5E430E10675E40675E40322E0FE
:1007E800FEA3E0FF4E22EFC36001D392ED22E0FFAB
:0507F800E54DC39F2246
:10080000C0557408C0E0C082C08375550AE5FF5426
:10081000CF4490F5FF22C0557408C0E0C082C08369
:10082000755520E5FF54CF4490F5FF22C05574085C
:10083000C0E0C082C083755536E5FF54CF44A0F5B3
:10084000FF22C0557408C0E0C082C08375554CE5D6
:10085000FF54CF44B0F5FF2290800401169081D15F
:1008600001169086BB01169086F701169087FD0150
:1008700016909D85011690A3E6011690A51201160B
:1008800090A515011690852701169085D101169027
:10089000A7B2011690A7E1011690A949011690ACE4
:1008A0000E011690B869011690C813011690B9E6AA
:1008B000011690BA20011690B6DD011690B4BB0166
:1008C0001690BF79011690BF22011690B7AD0116A0
:1008D00090B2C3011690C87A011690D7F501169010
:1008E000DFE8011690B046011690B02C011690E09A
:1008F00093011690B3D1011690E545011690811C25
:10090000011690E643011690E1A3011690C5A101DE
:100910001690D9A1011690A735011690CCFB0116AF
:1009200090E796011690DA39011690DAF7011690E1
:10093000DE45011690E799011690E7BF011690D5A4
:10094000FE011690E7CD011690AFDA011690D6CCD5
:10095000011690D483011690D61B011690E9670109
:100960001690EAB8011690D316011690EAF901160E
:1009700090D505011690BBB1011690EB2F01169092
:10098000EB8D011690D3CD011690C008011690ECA6
:1009900039011690C1BF011690EC57011690C7227D
:1009A000011690ED59011690EFB6011690CE550143
:1009B0001690F009011690DEEA011690F029011652
:1009C00090DDF9011690DD4C011690AE7D01169078
:1009D000AE83011690DE2A011690DDE1011690CC5F
:1009E0009F011690D247011690EAC1011690EA477E
:1009F000011690EAB6011690EA03011690EAD601B4
:100A00001690E45D011690E435011690BCD20116F3
:100A100090CF44011690F040011690F08801169096
:100A20008670011690CFC2011690F097011690D6ED
:100A30009E011690E2030116908BB6011690B6EC5B
:100A40000116908A24011690C45D0116908B7E01D8
:100A50001690F0D1011690EF5C011690D610011699
:100A600090F214011690C89F011690BE8501169051
:100A7000842B011690AE3B011690BACD011690DF83
:100A8000D4011690DE6B011690F232011690C4B2BA
:100A9000011690F249011690D360011690E2AE0162
:100AA0001690BA1D0116908487011690F24C01161B
:100AB00090E2A3011690CE0F011690CFA6011690DA
:100AC000CF7A0116908ACC01169089E30116908A9C
:100AD0003D011690DBEA011690DBA2011690E38C33
:100AE000011690A41F011690F2AF0116908717010E
:100AF0001690F40A0116909D8C011690F54301168C
:100B000090F550011690E33A011690E3BD0116905E
:100B1000E305011690F595011690F5C6011690F5BE
:100B2000DA011690F60E011690F6A9011690F662FB
:100B3000011690F6D0011690801401169081E601FE
:100B40001690F73B011690897301169088000116E4
:100B5000908B6101169087F901169080FD01169027
:100B60008B56011690BF42014290B214014290B4DC
:100B70009A014290C0A6014290C1E2014290BE8417
:100B8000014290C2DC014290C3BA014290C3DF012E
:100B90004290C3F4014290C3FA014290B944014229
:100BA00090BA4B014290BE39014290B3610142902C
:100BB000C448014290B44F014290B25E014290C4D9
:100BC000EB014290AB21014290B3E20142908ECB07
:100BD000014290B8BC0142908B980142909AC801A2
:100BE00042909BB90142908000014290C57D014234
:100BF00090C5950142908579014290C64601429088
:100C0000C21D014290C658014290A9CA014290A15A
:100C1000E2014290C67C014290C689014290C6958D
:100C2000014290C69B014290AFA7014290BAE901F0
:100C30004290C69E014290AF2E014290C6D501421D
:100C400090B207014290AC97014290C6B901429020
:100C5000B0C4014290AD1F014290C71E014290C234
:100C60007B014290C85B014290B0F8014290C78F6F
:100C7000014290C891014290B3FA014290C90B0120
:100C80004290AD94014290AB9B014290C7710142EA
:100C900090C90C014290C938014290BEDA014290DD
:100CA000C9C90142909EED012C909EFE012C909F9F
:100CB000D4012C90A02E012C90A038012C90A05390
:100CC000012C90A06C012C90A076012C909C5C01D2
:100CD0002C90A097012C90A0A1012C90A107012C91
:100CE00090A16A012C90A1B2012C90A174012C90CA
:100CF000A17E012C909F5C012C90A20E012C90A152
:100D000088012C90A192012C90A1A8012C909DD833
:100D1000012C909E17012C90A274012C9080E70169
:100D20002C90A343012C90A344012C90989C012C5F
:100D3000909EA4012C909628012C909C06012C904A
:100D40009D59012C909B68012C90A367012C00E712
:100D500009F608DFFA8046E709F208DFFA803E88E4
:100D6000828C83E709F0A3DFFA8032E309F608DF1B
:100D7000FA8078E309F208DFFA807088828C83E3D6
:100D800009F0A3DFFA806489828A83E0A3F608DF92
:100D9000FA805889828A83E0A3F208DFFA804C80C7
:100DA000D280FA80C680D4806980F280338010803F
:100DB000A680EA809A80A880DA80E280CA8033899F
:100DC000828A83ECFAE493A3C8C582C8CCC583CCDD
:100DD000F0A3C8C582C8CCC583CCDFE9DEE7800DAF
:100DE00089828A83E493A3F608DFF9ECFAA9F0ED8F
:100DF000FB2289828A83ECFAE0A3C8C582C8CCC5ED
:100E000083CCF0A3C8C582C8CCC583CCDFEADEE8BA
:100E100080DB89828A83E493A3F208DFF980CC889F
:100E2000F0EF60010E4E60C388F0ED2402B40400C0
:100E300050B9F582EB2402B4040050AF232345825D
:100E400023900D9F73BB010689828A83E0225002A2
:100E5000E722BBFE02E32289828A83E49322BB015C
:100E60000B89828A83F8E0C828F0E822500327C75C
:100E700022BBFE07F8E3C828F3E8228A838982E4CC
:100E80009322BB010CE58229F582E5833AF583E0E4
:100E9000225006E92582F8E622BBFE06E92582F803
:100EA000E222E58229F582E5833AF583E49322BBC9
:100EB000010989828A83F8E028F022500327F7226B
:100EC000BBFE05F8E328F3228A838982F8E493289D
:100ED00022BB010FF8E58229F582E5833AF583E02C
:100EE00028F0225009C58229F8E58226F622BBFEA9
:100EF00009C58229F8E22582F222F8EA2583F583E2
:100F0000E9932822BB010689828A83F0225002F7E6
:100F100022BBFE01F322F8BB010DE58229F582E533
:100F2000833AF583E8F0225006E92582C8F622BB11
:100F3000FE05E92582C8F222EF8DF0A4A8F0CF8C3F
:100F4000F0A428CE8DF0A42EFE22BC000BBE0029FA
:100F5000EF8DF084FFADF022E4CCF875F008EF2FB0
:100F6000FFEE33FEEC33FCEE9DEC984005FCEE9D6D
:100F7000FE0FD5F0E9E4CEFD22EDF8F5F0EE842089
:100F8000D21CFEADF075F008EF2FFFED33FD4007EA
:100F9000985006D5F0F222C398FD0FD5F0EA22C290
:100FA000D5EC30E709B2D5E4C39DFDE49CFCEE30FE
:100FB000E715B2D5E4C39FFFE49EFE120F4AC3E4D7
:100FC0009DFDE49CFC8003120F4A30D507C3E49FCB
:100FD000FFE49EFE22C5F0F8A3E028F0C5F0F8E596
:100FE00082158270021583E038F022A3F8E0C5F084
:100FF00025F0F0E582158270021583E0C838F0E82C
:1010000022BB010A89828A83E0F5F0A3E022500620
:1010100087F009E71922BBFE07E3F5F009E319227F
:1010200089828A83E493F5F074019322BB010789D6
:10103000828A83020FD5500B09C5F027F7C5F01936
:1010400037F722BBFE0D09F8E325F0F3C5F019E3ED
:1010500038F322F889828A8374019325F0C5F0F869
:10106000E4933822BB010A89828A83F0E5F0A3F079
:10107000225006F709A7F01922BBFE06F3E5F00996
:10108000F31922EF2BFFEE3AFEED39FDEC38FC228E
:10109000C3EF9BFFEE9AFEED99FDEC98FC22E88FE2
:1010A000F0A4CC8BF0A42CFCE98EF0A42CFC8AF0EC
:1010B000EDA42CFCEA8EF0A4CDA8F08BF0A42DCCEE
:1010C0003825F0FDE98FF0A42CCD35F0FCEB8EF047
:1010D000A4FEA9F0EB8FF0A4CFC5F02ECD39FEE42D
:1010E0003CFCEAA42DCE35F0FDE43CFC2275F00872
:1010F000758200EF2FFFEE33FECD33CDCC33CCC560
:101100008233C5829BED9AEC99E58298400CF5827A
:10111000EE9BFEED9AFDEC99FC0FD5F0D6E4CEFBEC
:10112000E4CDFAE4CCF9A88222B800C1B90059BADA
:10113000002DEC8BF084CFCECDFCE5F0CBF9781808
:10114000EF2FFFEE33FEED33FDEC33FCEB33FB1002
:10115000D703994004EB99FB0FD8E5E4F9FA22781C
:1011600018EF2FFFEE33FEED33FDEC33FCC933C92E
:1011700010D7059BE99A4007EC9BFCE99AF90FD838
:10118000E0E4C9FAE4CCFB2275F010EF2FFFEE3358
:10119000FEED33FDCC33CCC833C810D7079BEC9A97
:1011A000E899400AED9BFDEC9AFCE899F80FD5F020
:1011B000DAE4CDFBE4CCFAE4C8F922C3E49FFFE40F
:1011C0009EFEE49DFDE49CFC22EB9FF5F0EA9E422E
:1011D000F0E99D42F0EC6480C864809845F022EB11
:1011E0009FF5F0EA9E42F0E99D42F0E89C45F0222E
:1011F000E8600FECC313FCED13FDEE13FEEF13FFDD
:10120000D8F122E8600FEFC333FFEE33FEED33FD7C
:10121000EC33FCD8F122BB010789828A8302125881
:101220005005E9F8021410BBFE05E9F802141C226F
:10123000E0FCA3E0FDA3E0FEA3E0FF22E493FC7446
:101240000193FD740293FE740393FF22E0F8A3E080
:10125000F9A3E0FAA3E0FB22ECF0A3EDF0A3EEF09B
:10126000A3EFF022A8828583F0D083D08212127B74
:1012700012127B12127B12127BE473E493A3C583D8
:10128000C5F0C583C8C582C8F0A3C583C5F0C583B2
:10129000C8C582C822A42582F582E5F03583F5838E
:1012A00022E0FBA3E0FAA3E0F922EBF0A3EAF0A32B
:1012B000E9F022E493FB740193FA740293F922BBE0
:1012C000010789828A830212A15005E9F8021428D5
:1012D000BBFE05E9F802143A89828A830212B3BB85
:1012E000011A89828A83D0F0D0E0F8D0E0F9D0E00A
:1012F000FAD0E0FBE8C0E0C0F00212AA5016E9F80C
:10130000D083D082D0E0F9D0E0FAD0E0FBC082C038
:1013100083021431BBFE16E9F8D083D082D0E0F905
:10132000D0E0FAD0E0FBC082C08302144322BB01AC
:101330000DE58229F582E5833AF5830212A1500773
:10134000E92582F8021428BBFE07E92582F8021479
:101350003AE58229F582E5833AF5830212B3BB01AF
:1013600020E58229F582E5833AF583D0F0D0E0F8D4
:10137000D0E0F9D0E0FAD0E0FBE8C0E0C0F0021223
:10138000AA5018E92582F8D083D082D0E0F9D0E0C5
:10139000FAD0E0FBC082C083021431BBFE18E925FD
:1013A00082F8D083D082D0E0F9D0E0FAD0E0FBC060
:1013B00082C08302144322D083D082F8E493701257
:1013C000740193700DA3A393F8740193F58288833D
:1013D000E4737402936860EFA3A3A380DF8A838918
:1013E00082E473EC8EF0A4CCC5F0CCCDF8EFA4CEA3
:1013F000C5F02DFDE43CFCE8A42EC8C5F03DFDE49D
:101400003CFCEFA4FFE5F028FEE43DFDE43CFC22BB
:10141000ECF608EDF608EEF608EFF622ECF208ED31
:10142000F208EEF208EFF222E6FB08E6FA08E6F927
:1014300022EBF608EAF608E9F622E2FB08E2FA08EF
:10144000E2F922EBF208EAF208E9F222C0E0C0F089
:10145000C083C082C0D075D000C000C001C002C02F
:1014600003C004C005C006C007902F6DE5FFF075EE
:10147000FF02E5D430E60D75D440902DAE1207E79B
:101480006002B1F775FF02E5D430E50D75D4209008
:101490002DB01207E76002B1F775FF02E5D430E422
:1014A0000D75D410902DB21207E76002D14975FF77
:1014B00002E5D430E30D75D408902DAE1207E76035
:1014C00002B1FF75FF02E5D430E20D75D404902D12
:1014D000B01207E76002B1FF75FF02E5D430E118F2
:1014E00075D402D151EF6010902DB21207E760045D
:1014F000D1418004D10FD10775FF02E5D430E0134C
:1015000075D401902DB21207E760088F828E837F19
:101510000771E175FF02E5D530E41375D510902D04
:10152000B21207E760088F828E837F0371E175FF37
:1015300002E5D530E10D75D502902DB21207E760B6
:1015400002D13975FF02E5D530E01375D501902D34
:10155000B21207E760088F828E837F0471E175FF06
:1015600002E5D530E21375D504902DB21207E7607D
:10157000088F828E837F0A71E175FF02E5D530E71F
:101580001375D580902DB21207E760088F828E8385
:101590007F0871E175FF02E5D530E61375D54090FF
:1015A0002DB21207E760088F828E837F0971E19068
:1015B0002F6DE0F5FFD007D006D005D004D003D0C2
:1015C00002D001D000D0D0D082D083D0F0D0E03291
:1015D00075FF028FD675FF02AF058FD77F01020717
:1015E000EEE475FF02AFD4CDEFCD75FF02AFD5EFBE
:1015F000FCEDCEECCEFF228F828E837F0161E18FE6
:10160000828E83E4FF61E1D12FE4F59E7F01227594
:10161000FF0153CCFD43FB40D12F759E0143FB09D5
:1016200075FF03859E9E75FF03859E9E7F01227533
:10163000FF0243D20175FF03228F828E837F0661F2
:10164000E18F828E837F0261E18F828E837F0561CD
:10165000E175FF02AFD3EF7F0030E6027F01227514
:10166000FF02EFF452D475FF02EDF452D522902E12
:101670004E51AA902E51F196943F4003743FF0755D
:10168000FF02E5CD20E13EE5FD254D04543FFFE599
:10169000DD543F6F6027902E511207F6501F902E99
:1016A0004E51A1854D82F141AEFDF19E543F248EF5
:1016B000F582EC3406F583EFF0054D80CAE5FD2593
:1016C0004D543FF5FDAF4D22902F97EFF07B017AFF
:1016D0002F79977D01D16E7F0122902E5251AA90D1
:1016E0002E55EDF0E4F54D75FF02EDD3941F400348
:1016F000741FF075FF02E5CD20E23EE5C9254D04DB
:10170000541FFFE5DE541F6F6027902E551207F619
:10171000501F902E5251A1854D82F141AEC9F19ECC
:10172000541F24EEF582EC3406F583EFF0054D806E
:10173000CAE5C9254D541FF5C9AF4D2251A11E8ED2
:1017400082758300020E82902E5651AA902E59F176
:1017500096943F4003743FF075FF02E5CB254D544E
:101760003FFFE5DB543F6F6020902E591207F65083
:1017700018ADCBF1E0543F244EF582EE3406F583EC
:10178000E0902E5612180A80D2E54D600625CB5403
:101790003FF5CBAF4D22EDF0E4F54DEDD322FFE563
:1017A0004DFDEE2DFD7C00ED22902E02F1DAE58F4D
:1017B00020E0FBF1E8E4FF902E0251A18F82F1417D
:1017C000F5930FEFB410F0E4FF902E0551A18F8236
:1017D000F141F5940FEFB410F02251AA75FF0122E8
:1017E000ED254DFF7E00EF2275FF01538F0675FF3B
:0817F00001538FF075FF012287
:10180000020305E4FF021DD57FB8FF1212A1854D2A
:1018100082758300EF120F16054D22122018B401B5
:0A182000027F0122902E1C021230FC
:10182B0002284075FF02E5DB543FFFE5CB543F6FC9
:0F183B007F0060027F0122F0902BC8E0FFF422B3
:10184B0002351874FFF5F0120FEB45F0220208F386
:10185B0002144C902E5A1212AA902E5D12179694C7
:10186B001F4003741FF075FF02E5CC254D541FFF7D
:10187B00E5DC541F6F6020902E5D1207F65018ADFB
:10188B00CC1217E0541F24CEF582EE3406F583E01C
:10189B00902E5A110A80D2E54D600625CC541FF5C7
:1018AB00CCAF4D2275FF02E5DC541FFFE5CC541F76
:1018BB006F7F0060027F0122AD07901215E054FC90
:1018CB00F0E0FFED54307E0060027E02EF4E90128E
:1018DB0015F0E0FFED7E0030E0027E01EF4E90123E
:1018EB0015F0229007417402F0900734E0FF120DBF
:1018FB002B11C39007417405F02275FF0275E404A8
:10190B00E4F5E475FF02E5E630E012901215E054C1
:10191B000C600A124368901215E054F7F01203ECB6
:10192B001243F6900736EFF0901200E0B47A149061
:10193B001214E0B49C0D900736E0FF64056004EFD1
:10194B00B4032EE4900740F0900740E0FFC394806F
:10195B005013E42FF582E43412F583E4F090074042
:10196B00E004F080E3901200747AF0901214749CEF
:10197B00F0120B874003120B827B017A1279107DD8
:10198B00017F01120B7D7B017A1279117D017F2181
:10199B00120B7D7B017A1279127D017F22120B7D56
:1019AB007A12791D7F021226FE90121DE0B40105FA
:1019BB007F01124BC2120B231243F6120B1E900720
:1019CB0036EFF0120C18120B14900736E0FF120DC5
:1019DB0026EF24FFB3926675FF0253E6BF12281D54
:1019EB00120B2D12202720660B11EE7B017A277923
:1019FB00711209987F011206D6D2AF20660241916F
:101A0B00120B8C1208A3120D21120B7840F29007C7
:101A1B0035E06040120B50EF7005124E504035E52B
:101A2B001470FCE51520E503123BAD12085DEF7059
:101A3B00FAF1C05004F1D250047F0171DB900735ED
:101A4B00E0B40204E4FF8009900735E0B403057F9E
:101A5B000112434A120B4BE51530E1A4123C09402D
:101A6B0002E4F0E51520E50571AF1233D0124E06F6
:101A7B00AF82AE83EFC0E071BD900738E0FDD0E0E0
:101A8B00FF120C0E410B1227FA111BEF7006900779
:101A9B0035E0604E201C03200948120B50EF7005F7
:101AAB00124E50403DE51470FCE51520E503123B4A
:101ABB00AD12085DEF70FAF1C05004F1D250047F03
:101ACB000171DB900735E07011111BEF600C1220D8
:101ADB000A901215E04408F08008900735E0FF12D9
:101AEB004332900735E0600C201C093009062002B8
:101AFB0003120970120B8C1208A312401071CDF156
:101B0B00B5EF702312201FEF60051243688036116A
:101B1B001BEF7031124280EF702B122759EF6401CB
:101B2B007023122003801E901215E020E217122062
:101B3B001FEF600CF1C05004F1D25004E4FF71DBD5
:101B4B00E490073FF0203505120B4B80221208B7AB
:101B5B0090072EE0FEEFC39E4005EF9EFF8008909E
:101B6B00072EE0F4042FFF7406D39F5002C235E515
:101B7B001530E128123C094002E4F0E51520E5059B
:101B8B0071AF1233D0124E06AF82AE83EFC0E0714D
:101B9B00BD900738E0FDD0E0FF120C0E120AEC12DC
:101BAB00280B4191900737E0FD75F0AA900745127D
:101BBB001295ED75F002A42430F9740735F0FA7B19
:101BCB00012290073FE0FF120D1C900744EFF0221B
:101BDB00902F35EFF0E4A3F0902BD6E0FFB4020981
:101BEB00740FF1ED74B9F0800CEF6404703F743D29
:101BFB00F1ED7479F0B16C902F35E06007902BD537
:101C0B00E0FF80027FAB9142D145902F35E0902BC6
:101C1B00D5F07015902F36E0D39400400C7FFF91D8
:101C2B0042902F36E014F080EBE4FFB1D522121274
:101C3B003078081211F0E4E5C820E2FB8FEB227F2D
:101C4B0001B1D5902F717401F0902F71E06037B115
:101C5B00707F0591D3902F71EFF0D14591CF902BE1
:101C6B00C8EFF091D5902BC9EFF0D145902F71E0D3
:101C7B005401114260D3A3E0F460CEEF30E7CAE425
:101C8B00902F71F080C3B1707F9F91D3902BCAEFCF
:101C9B00F091D5902BCFEFF091D5902BD0EFF0B1F9
:101CAB00D1902BC8E0F4601BA3E0F46016902BCF0F
:101CBB00E0FD541F240FA3F0EDC413540744809090
:101CCB002BCFF022B1707FD791427FFF9142E5C8B5
:101CDB0020E2FBAFEB227F01B1D5305916B1707FFB
:101CEB000591D3902F72EFF0D145902F72E020E049
:101CFB0002C25930591E91CF902BC8EFF091D5905D
:101D0B002BC9EF1142600BA3E0F46006EF30E70242
:101D1B00C259D145E4FFB1D5A259E433FF22902E2D
:101D2B001C1212581124D1C1902E20E06F6030127A
:101D3B0007D891E1EF60051207B780F6F156600600
:101D4B0011247810913E902E1C91391124E491426C
:101D5B00902E20E0FFB1CF902BCC7401F0D322C397
:101D6B00227F01B1D5902BCDE01213B71D93041D2B
:101D7B009B141DA0151DA5171DB5301DBA341DBF15
:101D8B00361DC43700001DAD533CEF853C80802FC2
:101D9B00533DEF8008533DDF8003533D7F853D90DE
:101DAB00801D533EDF853EA08015533FFE800D53B3
:101DBB003FEF8008533FBF8003533F7F853FB07F8A
:101DCB000CDFFE229142D145E4FFEFB4010443FE48
:101DDB00202253FEDF22902CA9121258902CAD1208
:101DEB0012AA1207D891E1EF60051207B780F6F13E
:101DFB0056600A902CA91212307810913E902CA9A3
:101E0B009139902CA9121230E48020902CB0114EF5
:101E1B00601D902CAD1212A1E94A600D120E45FF08
:101E2B009142902CAEF1E680E2E4FF914280DCB16E
:101E3B00D1902BCC7401F0229142124CCEEF70FA60
:101E4B00902BCFE0F4600A902F707406F0F1F570D0
:101E5B00FC902BCDE01213B71E7F041E87141E8C33
:101E6B00151E91171EA1301EA6341EAB361EB037A1
:101E7B0000001E99433C10853C80802F433D108011
:101E8B0008433D208003433D80853D90801D433EAC
:101E9B0020853EA08015433F01800D433F108008F5
:101EAB00433F408003433F80853FB0902F70740CBD
:101EBB00F0F1F570FC22902E171212581207D891E0
:101ECB00E1EF60051207B780F6B16C7F03F16B6031
:101EDB000A902E171212307810913E902E179139CE
:101EEB00902E17121230E491D3902E1BEFF0B1D13C
:101EFB00902E1BE0FF22902CB2121258902CB6128F
:101F0B0012AA1207D891E1EF60051207B780F6B15C
:101F1B006C7F03F16B600A902CB212123078109127
:101F2B003E902CB29139902CB2121230E491429027
:101F3B002CB9114E600F91D5902CB6124DFF902CF1
:101F4B00B7F1E680EAD145E4FFA1D57F01B1D5D247
:101F5B0059B1707F069142D145B170902BCBE0FF08
:101F6B009142902BCEE06402221207D891E1EF60F0
:101F7B00051207B780F67F01B1D5D259B1707F0634
:101F8B00D143B1707F0191427F03D143E4FFA1D5CF
:101F9B00902BC8E020E012B16C7F3D91427F2A91DB
:101FAB00427F8091427FA6B1CF22900744E07F0011
:101FBB0070027F0122900001740193B40007E49337
:101FCB00B41802C322D3227F017E009017FCE49346
:101FDB005EFE7401935F4E24FFB322E475F00102A1
:101FEB000FD5902F36F0902BD522902F70E014F058
:101FFB00E022E490073FF02290073F7401F022901B
:10200B00073F7402F022111870027F012290073FE4
:10201B00E07F00221118B402027F0122314E120B15
:10202B0041120C13120B91900736E0640170020100
:10203B00CC7FFF1208949009401212AA7E007F15E4
:10204B003148BF540D7E007F163148BFA5047F0178
:10205B0080027F00900734EFF064017042900940DA
:10206B001212A1AE023126900946E0FEA3E09009C0
:10207B0040D13BE92407F9E43AFA9009431212AA3A
:10208B00E92408F9E43AFE3126900946E06406702B
:10209B0004A3E064046008120899900734EFF090F1
:1020AB000734E0701C7E007F10C006C3744394108D
:1020BB00FE74389400F11FD0067120E4FFFE120865
:1020CB009E120A51120984120907306605754E01DA
:1020DB00802EF12F1208621207A5FE4FFDA3E0FC24
:1020EB004DFDA3E0FB4D600BEE5FFFEC5FFFEB5F85
:1020FB00F470031206FA90073BE0654E90072FF041
:10210B00E4902D3DF0902D3BF0A3F002001275FFF3
:10211B000275E40475E40175E40222AF017B017AD8
:10212B00097946902DB97402F0C1659026BEE07511
:10213B00F016A424E9F9741F35F0FEAF01E4FCFDA1
:10214B00021EC17B017A2B79CD7D017F03120B7DA2
:10215B007A2B79D67F08D1FE7A2B79D37F0971063A
:10216B007A2B79D17F0B7106902BD11207E7600682
:10217B00BEFF16BFFF13710D50028004711680094C
:10218B00902BD1E4F0A37440F0710D5002800890B5
:10219B002BCE7403F08006902BCE7402F0902BCDD7
:1021AB00E01213B721CB0421D61421DE1521E6173B
:1021BB0021FC30220434220C36221437000021F18A
:1021CB0075FF015338EF8538FD804775FF01533993
:1021DB00EF800E75FF015339DF800675FF01533910
:1021EB007F8539C9802C75FF01533ADF853ACA8048
:1021FB002175FF01533BFE801675FF01533BEF80AA
:10220B000E75FF01533BBF800675FF01533B7F8566
:10221B003BCB121E457F1151F8E4FF121BDB121C46
:10222B004A902BCB7402F0902BCFE0247F600904F3
:10223B00701651FE740A8007121F9B51FE7458F0E2
:10224B00902BCE7403F07116902BD0E0F46002410A
:10225B00F5902BD3E0FEA3E0FF64104E7006902B9D
:10226B00D0740EF0EF64204E7006902BD0740FF0EC
:10227B00EF64404E7006902BD07410F0EF64804EDC
:10228B007006902BD07411F0E4B5070AEEB401067A
:10229B00902BD07412F0E4B5070AEEB40206902B23
:1022AB00D07413F0E4B5070AEEB40406902BD07487
:1022BB0014F0E4B5070AEEB40806902BD07415F0B1
:1022CB00E4B5070AEEB41006902BD07416F0E4B503
:1022DB00070AEEB42006902BD07417F0E4B5070A6A
:1022EB00EEB44006902BD07418F0021F74EF44200C
:1022FB00F5FE227F1051F8902BCB227B017D020241
:10230B000B7D902BD6E024FE24FD22902BD1740163
:10231B00F0A3E4F022712A74FFFDFC227405F09007
:10232B002D551212AAE4FCFDC007902D551212A1D7
:10233B00902D58F105D007902BF4121258902BF8D2
:10234B001212AA902BF4121230902BD2E024FFFD24
:10235B00902BD1E034FF5EFEED5FFF902BFDEEF096
:10236B00A3EFF04E6060B142C3902BD2E09FFF9081
:10237B002BD1E09EFE902BFDF0A3EFF0902BFBD129
:10238B00159FEC9E5006A3ECF0A3EDF0B1F2602785
:10239B00B112C004C005C006C00791674A6005B101
:1023AB0005FF80027F007E009167D126D007D00603
:1023BB00D005D004121DE191404A6004B1428068FF
:1023CB007E007F008062902BFB1207E76065902BED
:1023DB00D1D115EF9DEE9C400A902BFDECF0A3EDB7
:1023EB00F0800D902BFBE0FFA3E0A3CFF0A3EFF069
:1023FB00B1F26027B112C004C005C006C0079167D7
:10240B004A6005B105FF80027F007E009167D126EF
:10241B00D007D006D005D004121DE191404A6004CC
:10242B00B14280047E007F00902BF9EE8FF0120FEB
:10243B00D58093D322902BFDE0FEA3E0FFC3902B1E
:10244B00FCE09FF0902BFBE09EF0902BF412124CD3
:10245B00E4FCFD121083902BF4121258902BF812FF
:10246B0012A1E922EFF4045FFFE4FEEF70037FFF9C
:10247B0022EFD3940F4009EFC4540FFFEE4404FE38
:10248B00EFD39403400AEF1313543FFFEE4402FEC5
:10249B00EF30E1010EAF0622AB07AA06EB241FFFBC
:1024AB00E43AFEEF7805CEC313CE13D8F9F9EB540B
:1024BB001F902F73F0AF05B10AFCAF059174AE01FD
:1024CB00EE14C39FC43354E0F9AF04C3EB9FFFEA90
:1024DB009400FEE9FDC3EF9DFFEE9400FEED600F4F
:1024EB00E0FD6007C374209DFD80067D0080027DAA
:1024FB00007C00EF2DFFEC3EFE22902C01E0FF91C3
:10250B006FEFC43354E022902BFDE0FEA3E0FF906D
:10251B002C01E0FD91A3902BFFEEF0A3EFF0A3E0D5
:10252B00FF916FEF75F020A4FFAEF0E4FCFD902B54
:10253B00F412124C021083902BFDE0FEA3E0FF225D
:10254B00D11C1212AAE4902C19F0A304F0902C16B3
:10255B001207E77002A1ECD3EF9420EE9400400435
:10256B007F208006902C16A3E0FF902C18EFF090A4
:10257B002C131212A1902C18E0FF902ABCE4F0A3AC
:10258B00EFF0902C0F121230D188400E902C19E0E6
:10259B00FFA3E0FEEF4E902C19F0902C18E0FFC338
:1025AB00902C17E09FF0902C16E09400F0902C0FDD
:1025BB0012124C902C18E4FCFDFE121083D11C124D
:1025CB0012A1E94A6007902C18E0FF80027F00906F
:1025DB002C14E48FF0120FD5902C1AE025E0F0A10B
:1025EB0058902C19E0FF22902BF81212A1902BFD82
:1025FB00E0FFA3E0902C16CFF0A3EFF0902BF4129A
:10260B001230B14B902C01EFF022E0FCA3E0FDD394
:10261B0022902C0F121258902C13222FF9EE3AFA0B
:10262B00902BFFE0FFA3E0902CB0CFF0A3EFF022B4
:10263B00FF1212A1C3E99FF9EA9EFA22902ED3E072
:10264B0075F005A4242EF9742B35F0FEAF017B0138
:10265B007A2A79E5902DB97405F0902DB61212AA4D
:10266B00E4FCFDC007902DB61212A1902DB9E0FF2E
:10267B00902CB9E4F0A3EFF0D007021F01902AB51C
:10268B00121258902AB91212AAE4902ADEF0D390B3
:10269B002ABDE09420902ABCE094004001227B01EB
:1026AB007A2A79BE902ABCF112902AB512123012F6
:1026BB001F01902AB91212A1E94A600C902ADEE0A0
:1026CB00F582121741FF80027F00902ADEE024BEC4
:1026DB00F582E4342AF583E06F6002C322902ADE90
:1026EB00E004FFF0D3902ABDE09F902ABCE0940059
:1026FB0050C0227B017D01020B7DE0FFA3E0902BFC
:10270B00FBCFF0A3EFF022E0FFA3E0902CB9CFF0CA
:10271B00A3EFF022902D58F0A3CEF07B007A007936
:10272B000022C20A7B007A00794E902DBD1212AAAC
:10273B000B7A0779392275FF0275E404E4F5E4227C
:10274B00D2091208B7900742EEF0A3EFF022200D4A
:10275B0005F14B7F01227F00229009A2EFF0A3ED40
:10276B00F05402901234F0F159EF7002C322900929
:10277B00A2E0B40411A3E0FB7D017F01F1A6900957
:10278B00A27403F080059009A3F1A09009A2E09038
:10279B000735F0D322E0FB7D01E4FFEB600875FF0A
:1027AB000153CDFD800675FF0143CD02ED6005534E
:1027BB00FBDF800343FB20EF600775FF0243E14023
:1027CB002275FF0253E1BF2275FF028FE3229007B0
:1027DB002FE064AA2411FFF022F1D9EF75F0A08449
:1027EB0022AE07F1D9EE04FEEF8EF084AFF022306B
:1027FB00360D12092FEF6007C25F12091BC236227A
:10280B0090073D1207E76009CAEECAC9EFC9121358
:10281B00DD22D2ADD2BD75FF02758E71754F097574
:10282B00FF02E58E546F4480F58E902E5E1212647B
:10283B000000000022C0E0C0F0C083C082C0D07591
:10284B00D008C0FF75FF02E58E30E43A75FF02E554
:10285B008E54EF4410F58E902E5E12123011CAFC7E
:10286B00902E5E121258900000121FE6E54F30E0DA
:10287B00020541E54F700D754F09054AE54A700297
:10288B0005498002154F75FF02E58530E40875FF99
:10289B00024385100553D0FFD0D0D082D083D0F027
:1028AB00D0E032FF7E04FDFCE0F8A3E0F9A3E0FAF0
:1028BB00A3E0FB12109EE47B7DFAF9F8121129EFCD
:1028CB002401FFE43EFEE43DFDE43C22902B071285
:1028DB00125875FF0243E180123BDBF121902B1C58
:1028EB00121264002DC6C0E4F5FFF5A490120EF091
:1028FB00A3F0902B177402F0F1D2FFF595EF146053
:10290B001314601C24027027902B075143B14A907B
:10291B002B138016902B0B5143B14A902B14800A2A
:10292B00902B0F5143B14A902B15E0902B20F012B6
:10293B0047DB902B20E0700FF5FFF59675FF0175C7
:10294B00D70975F418805990120EE004F0902B17EC
:10295B00E0124F91902B1C5143FF902B18F1F3C3B6
:10296B001211DF500A902B185143FFA312125890EB
:10297B002B20E0FF12465C902B16E0FFA3E0FDA29C
:10298B00569254124789A35143FF902E131212589B
:10299B00902B17E0FF91A5902B175135FF1244EFA9
:1029AB00F1EA600221037402F0F1D2F595E5F454DB
:1029BB00077015902B1C11AEB144902B17B138F149
:1029CB00CBEB5136FF1244EFF1EA70DD75FF037567
:1029DB009580124F89400343F420A256925512461C
:1029EB00BB902B1C51432420FFEE344E11D0FCE442
:1029FB00FB7A04F9F811BEB144C253D113E4F5FFCD
:102A0B00E5BD54F84404F5BD9012137401F07E1229
:102A1B007F01E4FD8F828E83EF2D124F81FC90128C
:102A2B0013E02CF00DEDB412EB22E025E025E024B1
:102A3B0001F582E43412F583E0FCA3E0FDA3E0FE94
:102A4B00A3E022902C4B1244E6902C5112126400FE
:102A5B00000001902C557401F0F5FFE5D554C070C2
:102A6B000512301F5002C322E4F5FF53967F75FF0A
:102A7B000175D5047F3FFED1F775FF0143D508E4FF
:102A8B00F5FF5394FBF5FF53847FF5FF7598FF908B
:102A9B002C4FE5F4F075F49C75FF01A3E5E4F0759C
:102AAB00E4257B017A2C79551244B3902C55E064C4
:102ABB00016002617CF5FF902C4E7414F0902C5148
:102ACB005143FF7801121203902C51121258E5A7B3
:102ADB0030E1FB43A702902C515143FFE5A730E0B7
:102AEB0005E47B018002E4FBFAF9F8EF4BFFEE4AB9
:102AFB00FEED49FDEC48FC902C51121258902C4ED7
:102B0B00E014F070B8902C515143FF78101211F073
:102B1B007B6D7A4E79C6784112109EEF2439FFEE09
:102B2B00343011D0FCE4FBFA7901F8121129EE5480
:102B3B007FFEE4FDFC123AE5902C515143FFEB6F05
:102B4B00FFEA6EFEE8CDEFCDCCEECCECFF902C4B3C
:102B5B001234F9EF120F04902C4B1234F990000140
:102B6B00ED120F1690120FE030E606E4F5FF7596A6
:102B7B008075FF01E4F5D5902C4FE0F5F475FF015E
:102B8B00A3E0F5E41246AA902C55E0B40103D380E0
:102B9B0001C322902D4C1248D8902D527401F0C2D3
:102BAB0057B163B1585005E5FC20E6F7B1E5BF011D
:102BBB0008E4F5FC75FC408007B1E5BF0202D322A7
:102BCB0075FF0153D8EF902D4DE0FF1247E875FFCD
:102BDB000153D5DF53FAFB902D4CE0FF1234599083
:102BEB002D4DE0902D4CB408095135245211CDFCDC
:102BFB0080035135FF1244EF902D4EE0FF12483603
:102C0B0075FF0175FF03759B04B16375FC42E5FC11
:102C1B0020E104B15840F4902D4FE0F075FF03E52F
:102C2B009B20E704B15840F4E59B20E70D75FF03AB
:102C3B00759B1F123BDBD257804DB1511244B390A1
:102C4B002D4DE0FD90120FE05D701C902D4CE0FFC0
:102C5B00B1511238C190120FE0FF902D4DE0FEEFF5
:102C6B004E90120FF05113F1B07B017A2D7950F188
:102C7B008E500FC3902D51E09420902D50E0940373
:102C8B0040E7B151124604D1FB30570261A4902D9D
:102C9B0052E0B40103D38001C322902E12EFF0E473
:102CAB00A311AEB144902E12B138F1CB901210E0BB
:102CBB0064806078E0C3947F503CEBB13A3412F5FA
:102CCB0083C083C0825143FFEEC0E0EFC0E090129F
:102CDB0010E075F004A4AEF0FBCAEECAEA3395E03F
:102CEB00F9F8D0E0FFD0E0FEC3EF9BFFEE9AFEEDCC
:102CFB0099FDEC98802E902E12E0B13A3412F583A8
:102D0B00C083C082F1F3901210E0F40475F004A4B8
:102D1B00FFAEF0EE3395E0FDFCEB2FFFEA3EFEE954
:102D2B003DFDE83CFCD082D08312125822E0FB25FB
:102D3B00E025E02401F582E422FC78010211F0FF8A
:102D4B00902B180212587B017A2D79522275FF03B2
:102D5B00E591C330E701D3227FE87E03B1B475FF61
:102D6B000343918022902F6FE5F4F0E0547FF5F44C
:102D7B007F827E00B1B4B169B1585005E5FC20E605
:102D8B00F7305808902F6FE04480F5F4B163B158D9
:102D9B005005E5FC20E6F775FF01E5D520E702C3FA
:102DAB0022E5F4D330E601C322902E6AEEF0A3EFB6
:102DBB00F07B017A2E796CF18E5014902E6CE0FE24
:102DCB00A3E0FF902E6BE09F902E6AE09E400A904E
:102DDB002E6AE0FEA3E0FFF104227FFA7E00F104ED
:102DEB00B169E5FC30E604B15840F7E5FC30E60389
:102DFB007F032275FF01E5D530E6037F0222E5D57F
:102E0B007F0030E7027F0122902B6B121258E4F502
:102E1B00FF75BB0575BB8575FF0175D50220530783
:102E2B007F3FFED1F7F1B075FF0143D52030530240
:102E3B00C1D9E4F5FF538EF7438E077D04E4F5FF0C
:102E4B008DBCF5FF43B102E5B130E2FBE4F5FFAF1A
:102E5B00DFEFFEACDEECFBEBFFED25E02469F5824A
:102E6B00E4342B124F32E4F5FFF5FF53B1FD0DEDBA
:102E7B00B40CCA902B6B5143FF78091211F0A3EEDF
:102E8B00F0A3EFF0E4FDED25E02473F582E4342BA1
:102E9B00F583E0C313FAA3E013FBF1A31248CD2B88
:102EAB00FFEE3AFEF1A3EEF0A3EFF0ED2404901247
:102EBB000DF0EDC394075016CFEDCF0DEFF1A4122B
:102ECB004EF1902B70E09F902B6FE09E50B8E4F585
:102EDB00FF758EC8F5FF90120DE0F5BCE4F5FF759C
:102EEB00BB8075FF01F5D5227F147E00F104B1691B
:102EFB0075FF03E59120E7FB2275FF03D3EF9402E7
:102F0B00EE9400400874FE2FFF74FF3EFEEFF59227
:102F1B00EE540FF59122F17853DB7F75FF0175D5D8
:102F2B0002D1F3F17843DB8075FF01E4F5D522CDB7
:102F3B00EFCDCCEECCF182AB94EF4BF1DACBEFCB08
:102F4B00FAE59130E719F185A994E9F582EF45820D
:102F5B00FFEB124F42C3EF9582E5F0958340E2E51C
:102F6B009120E708CEECCECFEDCFD1F72275FF0144
:102F7B00438E1075FF012275FF03AF93EF75F010B1
:102F8B00A4FF22F182AD94EF4DF1DA8FF0121064B1
:102F9B00E591C330E701D322ED25E02471F582E4FE
:102FAB00342BF58322E4F5FF75C2E17F1EF1E2308D
:102FBB00E707E4F5FF75C2A122E4F5FF75C2812294
:102FCB003412F58302125875FF03902B17E022245D
:102FDB00FBFFE5F034FF22FEF13A90120FE0229056
:102FEB002B17E0FF14F0EF22E0F8A3E0F9A3E0FACF
:102FFB00A3E0FB22E49004FCF09004EE04F0221218
:10300B00301F5006F1DB50028001C322C2EBA2ED50
:10301B00923BC2EDE5F4C330E701D322900967126E
:10302B0012AAD24EC2EBE51460024191E51530E2D3
:10303B0002C322519A24E3F9E43AFAE4120F041280
:10304B003CBE51E91210015407FF9004DDF0123A17
:10305B00F290096AEFF0E51520E06A111F40057F39
:10306B00011206D690096AE0FF7B017A09796B9110
:10307B0075E4337004D2EB417190096AE024AD1210
:10308B004F5AE0FF90096BE0D39F4039D2EB123CD3
:10309B006EA23B92ED9004EEE06010519A24E3F1A6
:1030AB00F0120F0443150471C2D3229004FCE0709C
:1030BB00127A0479FC7C2F7DFF7464F1E9E4A3F0B0
:1030CB001208C6C322111F5005C258122D70F18D64
:1030DB00E5D120E0FBE4F51051E91210015407C3D0
:1030EB009403E494005032519A24B151E251992443
:1030FB00D851E22FFFE433FED3EF9440EE6480947B
:10310B00804016519A24E3F9E43AFA7402120F0440
:10311B00431504A23B92EDD322519A2408F9E43AC9
:10312B00CFE9CFF5118F12519A24B151E2F516AEBA
:10313B0011124C72519A24B2F9E43A8B1CF51D8989
:10314B001E519A24D851E2F51F51E9121001FDAC22
:10315B00F05460602F519A24D951E2FF123C32C2D5
:10316B004E51D2FB7A009004FD124F527D18120F74
:10317B0038EF2BFFEA3EFEEF2414FBE43EFA7D0210
:10318B007F01415E51E912100154079004DDF07587
:10319B001408519A24B2F9E43AFAF1BA519A24D8A4
:1031AB0051E2FFAD16F1C79004DDE0640370227BA2
:1031BB0001FD51A2713050057401120EAFE4F5FF01
:1031CB00F199120E452428FBE433FA7D03E4FF4109
:1031DB005E9004DDE06402702951A57130400574E6
:1031EB00FF120EAFE4F5FFE5D25480440AF5D2127C
:1031FB000E452414FBE433FA7D027F01713A51F73B
:10320B008053E4FB7D0151A27130400574FF120E17
:10321B00AFE4F5FF51E971AF7F0560027F0AEF5410
:10322B007FFFE5D254804FF5D2E4F5FF43D28051B6
:10323B00D2FD7C0051E971AF7E0060047F0A8002F1
:10324B007F05EF25E0FFEE33FEEF2DFBEE3CFA7D25
:10325B00017F01713A51E9121001FFAEF0A24E92BB
:10326B004D123A514006A23B92EDC32271C2900916
:10327B006AE0519924E5F9E43AFAEF120F04A23B04
:10328B0092EDD2EBD322A23B92EDD2EBC322FF9075
:10329B0009671212A1E922FF51FC9009671212A1D2
:1032AB00E924B1F9E43AFA120E45FF9009671212BC
:1032BB00A1E924D8F9E43AFA120E452FFFE433FEC4
:1032CB00EF2401FFE43EFE9009671212A1E924B23C
:1032DB00F9E43AFAE92407F9E43AFA020E459009BF
:1032EB00671212A1E92404F9E43AFA22E4FB7D0106
:1032FB00FFE4F5FF75D102E5D120E0FBE4F5FFF526
:10330B00D1EF6008E4F5FF43D2808006E4F5FF536C
:10331B00D27FEB6006E4F5FF43D104ED6006E4F5E4
:10332B00FF43D10822D39FEE6480F87480982290DB
:10333B000996EFF0ED24FE60191460262402703B11
:10334B00EB2402FFE43AFE7C007D50120F387D60C7
:10335B00801E71B7C333CE33CED8F9FF7C007D28E6
:10336B00800E71B7C333CE33CED8F9FF7C007D64AA
:10337B00120F4A900997EEF0A3EFF0900996E01226
:10338B003CB0C083C08212124C900998E02401FF1C
:10339B00900997E03400FEE4FCFD121083D082D03C
:1033AB0083021258121001441045F022EB2401FF46
:1033BB00E43AFEEF780322E49004EEF07B017A040A
:1033CB0079FC0208C1AF82AE837D0190094F124D8B
:1033DB00F5E514707811175005C258122D7090092D
:1033EB004FE0FEA3E08E11F512A31212A19004DFA1
:1033FB001212AAAE11AF127DAA124C48E4F5FF755A
:10340B00D908F510E5155421602BE51530E504E4DA
:10341B00FF9159E4900954F0900954E004F01245DF
:10342B001BEF6009900954E0C3941040EB7F02122C
:10343B000D495315DE9004DBE07F00B403027F01DE
:10344B00F156D258122D70D2EBA23B92ED2275FFA2
:10345B0001E5D530E602C322E4F5FF439A80EF1273
:10346B004F91E4F5FF539A7FD322902E7AEFF0A37E
:10347B001244E675FF01122DE5EF64016002C322D1
:10348B00E5F430E602C3227FE87E03122F04122DEF
:10349B0069B102400122C258122D70902E7AE0FFC2
:1034AB00915953F4DFD258122D707F787E00122F72
:1034BB003A75FF0153E4BFE5E430E7FB1240B37FFD
:1034CB008A122FE230E60591F6E4800775FF019131
:1034DB00F6E5D9120F0475FF0143E440124F894002
:1034EB000343F420B102400122D322902E7BE0FB58
:1034FB00A3E0FAA3E0F922E5F730E50FE5F754C0B6
:10350B007005122D5840F0F1D4C322D322C0E0C075
:10351B00F0C083C082C0D075D008C0FF75FF01E535
:10352B00D530E6047F028009E5D57F0030E7027FC6
:10353B00018F18E51864026002A1EFE5141213B7AE
:10354B0035640135770235DB08358209358D0A354F
:10355B009B0B35B90C0000373B75FF0175C3551537
:10356B001AE51A6002E13B751402E13B75FF017528
:10357B00C3F0751409E13B75FF0175C35575140A4A
:10358B00E13B75FF019004EFE0F5C375140BE13BD4
:10359B0075FF019004DCE0F5C3751401751A1490E6
:1035AB0004FD124E396002E13B75140CE13BAB1C80
:1035BB00AA1DA91EF1BAAD16AF1FF1C751F775FFC2
:1035CB0000F19943FA0475FF00F15E751408E13BB5
:1035DB00C2EB751400431504123C604002E13B1230
:1035EB001FE6E13BE51864016002E13BF1E24002BA
:1035FB00E13BE510706BF1AE1212A1E5D9120F048D
:10360B00F1A2E09004FFF0124812123C1E9004DB72
:10361B00EFF09004FFE0FFD394095002C1BD90047A
:10362B00DBE0D39402400CEFD394AA7F0040027FDF
:10363B0001800D9004FFE0D394407F0040027F0196
:10364B00EF6002806D9004FFE0F5161240BD901202
:10365B001AEFF075FF009004FFE0F5D9751003E148
:10366B003BE51064036002E13BF1AE123B51E5D93F
:10367B00120F0475FF009004DBE0C39403E5D350F5
:10368B00055402FF80035401FFEF602A30E111C3A0
:10369B009004E9E094FF9004E8E094FF5014800F4D
:1036AB00C39004EBE094FF9004EAE094FF50031204
:1036BB001FE6F165807AC258122D7075FF00F190EC
:1036CB00E5D120E0FBC2EB431502F14FA3E0FF90E5
:1036DB00073AE0FEEF6EF14EE0900739F148A3A3F5
:1036EB00E090073BF148A3A3A3E0FE90073CE0FD6D
:1036FB00EE6D4F6012C39004EDE094FF9004ECE08C
:10370B0094FF5003121FE6C39004E7E094FF90046C
:10371B00E6E094FF5003121FE67510009004DBE007
:10372B00B403071516F1A2E516F0900738E516F06D
:10373B00D0FFD0D0D082D083D0F0D0E032FEE0FDED
:10374B00EE6D4FFF85128285118322915943FA0446
:10375B00E4F5FF53D1FD43D10122C258122D70F174
:10376B008DE5D120E0FBE4F5FF75D9089004DBE093
:10377B007F00B403027F01F156D258122D70E4F58D
:10378B001022E4F5FFE5D154FE4402F5D122E5D237
:10379B0054804414F5D222E5122407F582E4351146
:1037AB00F5832275FF01F5EA75EAFF9004DF22E449
:1037BB00F5FFE9124C69EA540F42D622E4F5FF8F6C
:1037CB00D4F5FFCFEDCF8FD52275FF03E4F5912212
:1037DB00E5F754E024FF22E5F754C024FF227B01D8
:1037EB00902D7BF022F9E43AFA740122AF14EFC367
:1037FB006001D322EFC3940E50059004DEEFF0224C
:10380B00E517540FFF22E517C394F0501F5317F021
:10381B00113AFE740FC39F4005EE940E40054317FB
:10382B000D8003EF4217E517540FFF227F0022E5AF
:10383B0017C4540FFEEF900584932E22113AFFC349
:10384B00940E40027F0DEF90056693FF22EF30E35D
:10385B0003AF1322AD1B203C04EE30E00BE517C386
:10386B0094F0502011928018E5196006FDE4F519CB
:10387B008012E517C394F0500BE517540FFF60044B
:10388B001147AD07AF05229004DEE0FDFFC3740EB8
:10389B0011BAEFC4F8540FC868FFEEC454F048FED9
:1038AB00E51754F0C31233317F005002AF05229F4E
:1038BB00FFE49400FE22902E76EDF0901211E0F4CE
:1038CB006005A3E0B4FF0C902E787418F0A374136A
:1038DB00F08010901211E0902E78F0901212E09080
:1038EB002E79F0120E4564016002412B902E76E08A
:1038FB00FE64086004EEB40408902E777428F08000
:10390B0006902E77743AF0EF122A36FF1211BBE4B1
:10391B00512CEF24D8FFEE343FFEED3493FDEC3405
:10392B0016FC7B007A80790378001203A851E5908E
:10393B002E79E0FF902E78E0C311BAE4FCFD121053
:10394B009EECC0E0EDC0E0EEC0E0EFC0E0902E7961
:10395B00E0FFE4FCFDFE512CD0E0FBD0E0FAD0E020
:10396B00F9D0E0F8EB2FFBEA3EFAE93DF9E83CF839
:10397B00902E77E0FFE4FCFDFE12109EEF2454FF27
:10398B00EE340B1228D0FCE47BA87A16F9F812035C
:10399B00A8CBEFCB902E76E014605D14601B24FE59
:1039AB00600C24FC707AE4F5FF75CE318006E4F5EB
:1039BB00FF75CE21F5FF8BCF22E4FAE4F5FFEA2465
:1039CB0040F5CEE4F5FFEAFFC3740711BA74CE2FAE
:1039DB00F58274053EF583E45134C39DF5CFE4F5D0
:1039EB00FFEA2448F5CEE4F5FFEA9005CE51342DDD
:1039FB00F5CF0AEAB408C422E4F5FF75CE01F5FF52
:103A0B008BCFF5FF75CE0EF5FFEB25E0F5CFE4F58B
:103A1B00FF75CE0FF5FFCFEBCFEB75F003A4F5CF12
:103A2B00227B64FAF9F802109E9325E0FDE433FC47
:103A3B00EB75F010A4FFAEF0120F4ACDEFCDEBFFFC
:103A4B00E4C313EF13224315015315DF11585192A1
:103A5B004004E4F5142243FA045315FB304D0512D0
:103A6B00375B800A7F55517B7F55517BD2EBD3223D
:103A7B0075FF01E5D520E602C322E5FA540360FA8F
:103A8B0075FF018FC3D322900994EFF09004DDE012
:103A9B00FF51F2900995EFF09004DDE024FD6013E7
:103AAB000470089009937404F0800E9009937408C5
:103ABB00F080069009937402F07F01120D49900972
:103ACB0095E090099351DEE4902D4FF0122B9E5010
:103ADB00EDD322FFE0FDA3E0FB22C8ECC8C9EDC982
:103AEB00CAEECACBEFCB22EF24FD600680007E012D
:103AFB008002E4FEAF0622900741E0B4020D8F1B5B
:103B0B0090051DE0F513120B28D322C322900990C8
:103B1B001212AA9009901212A1E51B7149715171F1
:103B2B0048716B71481212A17163E513714912321E
:103B3B00EC7148715CF9E43AFAE4020F04E4120FF9
:103B4B000490099022FF1212A1E92401F9E43AFA38
:103B5B00221212A1E9240522E92403F9E43AFA22FC
:103B6B001212A1E92402F9E43AFA22E51754F0C43F
:103B7B00540F2FFFC3941040027F0FEF90057493E7
:103B8B00FF227E10EE60091EEE90057493B507F4CC
:103B9B00EEC3940E40027E0DEE90056693FF22E479
:103BAB00F514E51470281230175005C258122D70F9
:103BBB0071DB7F08120D4912378DE5D120E0FB43F5
:103BCB0015205315FEE4F510A23B92EDD322C32230
:103BDB00E5FA30E1FB75FC8075FF0153D5EFE4F599
:103BEB00FC75FC401237D4E5FC20E6FB22C2AFEF9C
:103BFB004215D2AF22C2AFEFF45215D2AF227F02E1
:103C0B009100900737E0900740F090073704F0C31E
:103C1B00940222EF24FE600C24FE600580007F01DD
:103C2B00227F02227F0322751401751A139004EF71
:103C3B00EFF09004DD7402F0ED9004FD30E507E445
:103C4B00F0A3743AF022E4F0A374E6F022916050F2
:103C5B0003121FE622C39004E3E094FF9004E2E01A
:103C6B0094FF22C39004E5E094FF9004E4E094FFFA
:103C7B005003121FE6229004FDE0A3E0FF22E49024
:103C8B0004F0919E9004F4919EFFFEFDFC9004F8CD
:103C9B00021258FFFEFDFC121258E422EF91B012F3
:103CAB00123002121625E025E024F0F582E43404EC
:103CBB00F58322900739E0F4FFA3E06FFFA3E06FD9
:103CCB00FFA3E06FFF64556009EF644A6004EFB433
:103CDB000A010F9004DCEFF022A2EB924FC2EB7AB9
:103CEB000479E27B017D0CE4FF120858A24F92EBA2
:103CFB0022A2EB9250C2EBEBC0E0EAC0E0E9C0E0DD
:103D0B007B017A0479E2B129D0E0F9D0E0FAD0E076
:103D1B00FB7F0C120885A25092EB221212A1902D60
:103D2B00650212AA902E621212AAF17AB184120EB7
:103D3B0045902E65F0902E62B1267B01F198902E66
:103D4B0065E0B40119B184E924011232E2902B9C95
:103D5B00F074FE120F04902B9B7405F08015902EBF
:103D6B0065E0FF64066004EFB4070D902B9BE060E9
:103D7B0002B18AB184120D3022902E620212A1740C
:103D8B0001F0902B9BE0640270217C3D7D2F7F0125
:103D9B001209C57E3D7FFAC006C007E47FD07E07BF
:103DAB00FDFC12425CD007D006E18F902B9BE064A8
:103DBB00037017FFFEF1BA902B9FE07C3D7D2FB473
:103DCB0002047F0380117F02800D902B9BE0B404D3
:103DDB000B7C3D7D2F7F041209C58013902B9BE03C
:103DEB00B4010BF188F17AD1A7E4902B9BF022F16F
:103DFB007A902B9BE0B4020AF188902B9B7403F012
:103E0B008080902B9BE06403707A902B9DE0605731
:103E1B00902B9FE0B40105120B0A800A902B9FE0B8
:103E2B00B40203120B0F902B9DE014F0E0602012F4
:103E3B0027D9EF75F04684E5F075F064A4FFEF2405
:103E4B00A0FFE5F0340FFEE433FDE433FC8007E420
:103E5B007FA07E0FFDFC902CF11212587E3D7FFA55
:103E6B00E4902CF5F0E18F902B9B7401F0B18D90C9
:103E7B002BA274FDF0902BA17407F07B017A2B79A8
:103E8B00A1020D30902B9BE0B40410F1AAEF600857
:103E9B00122726E4FF0240E5120B0A22901215E0CE
:103EAB005403F022902D3EEFF0C251120A9CEF54B6
:103EBB002364206023902B9BE0601D7B017A2D797E
:103ECB003FB129F198902D3F7406F0A3E54EF07B9E
:103EDB00017A2D793F120D30902D3EE07002E16991
:103EEB00F1A1E06002B18A902D3EE0FFB401079092
:103EFB002B9F74018009EFB40310902B9F7402F079
:103F0B00D1A7902B9D7404F0804CEF640470391290
:103F1B000A9CEF5423FFBF2014D2511240C8EF70FC
:103F2B0004D1A7F1B2902B9B7404F08035120A9C3C
:103F3B00EF5432FFBF020C900736E0B40505E4F0F6
:103F4B00120B05D1A77F0022902D3EE0B40213E4A3
:103F5B00902B9DF0D1A7902B9B7402F08004F1A1C4
:103F6B0004F0B18D902B9BE07F0060027F012290CB
:103F7B002BA0E0FF1208ADE4902BA0F022E4FDFC97
:103F8B00FF0209C51208B2902BA0EFF0227A2B7911
:103F9B00A17F06020885E4902B9FF0902B9B22902B
:103FAB001215E05408FF22901215E04404F022FD94
:103FBB00FC902B97021258F1AAEF600FE47FA07EC2
:103FCB000FF1BA901215E054E7F022901215E0FFB2
:103FDB0074E0D39F4005E02410F022EF64109012A0
:103FEB0015F022C003C002C0017B017A2D7939B1D3
:103FFB0029D001D002D0037F02020885902D3BEE21
:10400B00F0A3EFF022122DE5EF6401706611BD9065
:10401B002F33EFF0D39402505A902D3DE0FF902FA9
:10402B0033E06F704E117F902F34EFF07B017A2FBE
:10403B0079347D01120C09902F33E02439F582E499
:10404B00342DF583EFF0902D3DE0045401F07023F7
:10405B00902D3BE07002A3E060197B017A2D79373C
:10406B00123FEE7B017A2D7937902D3B11AB8E836E
:10407B001213E122E4FFE5F754C06002801675FFCE
:10408B0001E5D530E30D11A450F4119FEF60EF1152
:10409B00A450EB2211B3AFD92275FF01E5E4332213
:1040AB00E0FEA3E0FFF5822275FF01E4F5EA75EA75
:1040BB00FF22E5F45418131313541FFF229012150B
:1040CB00E07F0030E2027F0122901215E05414FFD2
:1040DB00BF14047F0180027F002211D4EF70087F90
:1040EB00A07E0FFDFC21875146902B96EFF07406B6
:1040FB00D39F406AE0605C1227E47E00902B96E031
:10410B0014FDE5F0A805088005C333CE33CED8F9EE
:10411B00FF31F4123FBC902B9712124CC000C00120
:10412B00C002C003902B96E014FF74107E00A8070A
:10413B00088005C333CE33CED8F9FFEE3395E0FDBF
:10414B00FC31EC12109ED003D002D001D000121023
:10415B008380291227E4AFF07E0031F4801E902B70
:10416B009EE0FF600FE4FCFDFEFB7AF47901F81290
:10417B00109E80087F007ED07D077C00123FBC1212
:10418B003FC27E3D7FFAC006C00731E6515CD007C7
:10419B00D006123F8F5150EF704031E631ECD31205
:1041AB0011DF4007E47F01FEFD802531E631EC1283
:1041BB001129123FBC31E6E47B01513F501531E62A
:1041CB00C3EF9401FFEE9400FEED9400FDEC940020
:1041DB00123FBB31E631FB12274B22902B97021279
:1041EB0030E47BE87A03F9F8227C007D640213E368
:1041FB00902E661212585139E47BFF513F501CE44C
:10420B005138121129901216121258E47BFFFAF949
:10421B00513812112990121CEBF022901216121227
:10422B006400000000513990121CEFF022F8902E20
:10423B0066021230FAF9F8C30211DF901215E0C4CE
:10424B00135407FF22901215E07F0030E0027F012C
:10425B0022902CF1121258E4902CF5F022902E0D96
:10426B00121258902E11E05402901234F0902E0D31
:10427B0012123021FB902B9BE0B4040D902BA0E08D
:10428B0060075150EF7002FF22902B9BE0FF22E55D
:10429B004064066006E5406407702F902B95E06044
:1042AB0003F47026E4FDFC7F01120ADD7E427FD60B
:1042BB00C006C0077F587E807D047C00515CD00710
:1042CB00D0061208B2902B95EFF02251DA80C090F5
:1042DB002B95E0FF1208ADE4902B95F0229026CBA6
:1042EB00E070087B017A2679C3710A9026CBE044F3
:1042FB00C0F09026CE71119026D2E054FEF0227DB4
:10430B00107F23020B7DE054FEF0A3E044C0F022AB
:10431B007405D39F500B7463C39F4005902B9EEF86
:10432B00F0902B9EE0FF22902F6EEFF0BF0204E483
:10433B00FF8009902F6EE0B403047F01714A224382
:10434B00FB1075FF0243E640EF600D75FF02E5E1E0
:10435B0020E7FB43FB0D800343FB0E80FE71BA701D
:10436B000790121CE070012271BA60237FFF1200CC
:10437B0046901216121230EF24FFFFEE34FFFEEDC3
:10438B0034FFFDEC34FFFC901216121258800D9086
:10439B00121CE0FF120046E490121CF0901235E064
:1043AB00FD7F0171C99012341227A07F018090E428
:1043BB00FFFEFDFC90121612124CC30211DFEF70C0
:1043CB0011ED600775FF0143AE012275FF0153AE7E
:1043DB00FE22EFB40114901235EDF0600775FF016A
:1043EB0043AE022275FF0153AEFD2275FF02E5E6D7
:1043FB0030E2037F0322E5E630E3037F0022E5E6AC
:10440B0030E1037F0422E5E67F0530E0027F0122E5
:10441B00EF600775FF0253E6BF2275FF0243E640CC
:10442B0022EF14600F146014240270188B8075FF38
:10443B00018DFD228B9075FF018DC9228BA075FF1D
:10444B00018DCA22AF038FB075FF01AF058FCB2251
:10445B00902D461212AAEF146011146018240270EA
:10446B001E9195E580919BE5FD801C9195E59091C2
:10447B009BE5C980129195E5A0919BE5CA800891B7
:10448B0095E5B0919BE5CB020F04902D490212A14B
:10449B00120F0475FF01902D460212A1E4F5FFAF38
:1044AB009122E4F5FFAF9222902ECA91E67F017C18
:1044BB00127D01E4FE8D828C83ED2EF582E43CF5BA
:1044CB0083E02FFF0EEEB412EC901213E06F600A34
:1044DB00902ECA1234F9E4120F0422EBF0A3EAF087
:1044EB00A3E9F022902E6E12125875FF01902E6EDA
:1044FB00A3E0FDA3A3B1FA8FE1902E6EA3A3E0FE80
:10450B00A3B1F08FE2902E6EA3A3A3E0FF8FE32263
:10451B00E4902E72F0A304F0E4902E75F0E5FA30DF
:10452B00E1FB75FF01E5D530E7037F0022E4F5FFE2
:10453B0075E50875FF0153D8EFE5D530E61A75FF21
:10454B0001902E74E5DAF0E4F5DA75FF01E5D6306B
:10455B00E3FB902E757401F075FF03759B0475FCDE
:10456B004175FF03E59B30E7FBE4FB75FF038B9580
:10457B00EB122A36FF91EF0BEBB403EF75FF0375CC
:10458B009580E4F5FF758EC8122FB075FF0153D5DA
:10459B00FB1237D4122EF375FF0143D504902E7501
:1045AB00E070081237D47FC8122EF57B017A2E7972
:1045BB0073D104902E73E0902E727006E04404FFCA
:1045CB008002E0FF902E72EFF090120EE0B4010625
:1045DB0075FF0143D81075FF01902E74E0F5DA904A
:1045EB002E72E0FF22E4FFE4FDFC78080211F0E4F8
:1045FB00FFFEE4FC78100211F0C25275FF03759BAD
:10460B001F75FF0390120FE020E71BE59A540FC3B1
:10461B0094024012E04480F0E4F5FF75C2A143FC24
:10462B000475FF03D252E5FC30E609E59A540FC33B
:10463B00940540CDE5FC30E611E4120F0475FC80C7
:10464B00F5FC75FC40E5FC20E6FB305203122A1307
:10465B0022EF30E00E43F401E4F5FF43A404F5FF31
:10466B00759624EF30E10E43F401E4F5FF43A40803
:10467B00F5FF759624EF30E20943F402E4F5FF757C
:10468B00961EEF30E30943F404E4F5FF75961075BD
:10469B00FF01EF5403600475D7122275D72D22E466
:1046AB00F5FF7584E6F5FF439404F5FF7598142226
:1046BB00E4F5FF75933F75FF03759A40D1AAE4F5B6
:1046CB00FF759C93F5FF75A1A3F5FF758531F5FF7C
:1046DB00758628E5FA54304480F5FA75FF0175E7C5
:1046EB004A75FF0275DF4975FF0143D30475FF015E
:1046FB0053D367E4F5FF53E6BF75FF0175D825F576
:10470B00FF75B503F5FF75B215F5FF75BA02F5FF29
:10471B0075AFB3F5FF75CD0AF5FF75CB08F5FF75D2
:10472B00CA12F5FF75BF0EF5FF75CC96F5FFF5BDFB
:10473B00F5FF75C281F5FF75AEE1F5FF75DA55F53D
:10474B00FF75F580F5FF75E903F5FF75E933F5FFA7
:10475B0075972A75FF01759B42759CA4759D2975EC
:10476B009E48759F2475A11275A312759AF8205552
:10477B000CF5FF43968090120FE04440F022CCEFF3
:10478B00CCCFEDCF74017E00C8EFC8088005C333D2
:10479B00CE33CED8F9FFCDECCDEF5D601B30541886
:1047AB0075FF0175DCAD75FF0175DDCDE4F5FF75AA
:1047BB009A74F5FF7594842275FF0175DC5375FFB0
:1047CB000175DD33E4F5FF759A14F5FF759404223A
:1047DB0075FF0175E46575FF0175D6472275FF01FD
:1047EB00E5D530E602C32253FACFEFB4080543FAFE
:1047FB00308012EFB4040543FA208009EFB40205B0
:10480B0043FA108000D322E5F75406FFBF06037F5F
:10481B000822E5F75406FFBF04037F0422E5F75493
:10482B0006FFBF02037F02227F012275FF018FDA91
:10483B0022902E7E11D511B6AC00AD01AE02AF03A6
:10484B00C006C007902E7E11CDFBAA06E4F9F8D066
:10485B0007D006D31211C97E0050047F0180027F5E
:10486B0000C006C00711B6D0E02FFFD0E03E902E5F
:10487B007EF0A3EFF053ECFC902E7EE0FCA3E0FD6A
:10488B00EC540342EC75FF02EDF5AF75ED0275EDDF
:10489B0004A3E0600543EC08800353ECF7902E81F2
:1048AB00E0600443EC042253ECFB22902E7EE0FEEE
:1048BB00A3E0FBAA06E4F9F87F807E387D01FC02B9
:1048CB0003A8E0C313FEA3E01322EEF0A3EFF0A3C3
:1048DB00EDF0A3EBF022902C3311D87F02120B4694
:1048EB00902C3C1212AAEA494B606D902C34E0FFDD
:1048FB00316624B6F9E43AFAEF120F04E49008B2E9
:10490B00F09008A11212A1319FEF6014902C33E0AC
:10491B004442F0316624D9F9E43AFA74FF120F04D9
:10492B00902C35E0FF30E11E316651D574FF120F2C
:10493B0004EF54FC902C35F0FE902CA1E054FDF0CC
:10494B00316E7D01800C902C35E054FEF0FE316E03
:10495B007D02120BD77F01227F0022902C3C12127A
:10496B00A1E922902C33E0FF902C39E0900903F061
:10497B00A3EEF0902C3AE0FDA3E0900905CDF0A357
:10498B00EDF0902C3C1212A19009071212AA902C58
:10499B00360212A1902E491212AAE4902E4CF0A3CB
:1049AB00F0902E4CE0902E4951DC902E4CEFF060A5
:1049BB000B31D1EF6006902E4DE004F0902E4CE0C1
:1049CB0070DFA3E0FF22E0FFC264020A4C902C4090
:1049DB001212AA902C3FEFF0FE902C4A7403F09029
:1049EB002C47E05437F0E0FF5420902CA3F0902C90
:1049FB00A2EEF0902C48E0FDA3E0902C9FCDF0A30D
:104A0B00EDF0902C431212A1902CA61212AA902C0E
:104A1B0046E0902CA4F0902C401212A19008A11209
:104A2B0012AAEF4420902CA1F0E4902CA5F0C22BFD
:104A3B00F546902C401212A1AF461208DA8F46EFC2
:104A4B00602A7D03120AC940E9902C46E0D39419E1
:104A5B0040037F0022AF46120AC45008902C4A74C0
:104A6B0001F08008902C4A7402F080C6902C46E02E
:104A7B00FED3948240037F0022902C47E0FB902CC6
:104A8B004A30E01051C1C00351C9902C39EE51E3AB
:104A9B00D003802051C151C9902C46E0902C39F0A5
:104AAB00902C9FE0FBA3E0902C3ACBF0A3EBF09083
:104ABB002C47E0FB01E1E0FF902C3FE0FD22902C26
:104ACB00431212A1902C360212AA24BAF9E43AFA34
:104ADB0022FF1212A10208DAF0A3744AF0A374EDBC
:104AEB00F022EF6004902CA5F09008B2E09008A1A2
:104AFB0051DC9008B2EFF06051202B4E902CA3E0CC
:104B0B00C330E501D3922E902CA2E0FD902CA6127F
:104B1B0012A19008E51212AA902CA4E09008E8F0DC
:104B2B00902CA1E09008E9F0A3748051E39008B2B7
:104B3B007162EF7021902CA57402F0902C9FE0FE17
:104B4B00A3E0F5828E837F028009902CA5E0902C48
:104B5B009F71691213E122E0FBE4FF020BE1FFE01E
:104B6B00FCA3E0FDF5828C8322902C6D1212AA908F
:104B7B002C6CEFF0120AA64006902C6CE54EF090D0
:104B8B002C6CE0FF902C701212A1902C431212AAE5
:104B9B00902C73E0902C46F0902C74E0902C47F006
:104BAB00902C75E0FDA3E0902C48CDF0A3EDF09098
:104BBB002C6D1212A121D8EF600775FF0243E6108E
:104BCB002275FF0253E6EF22E5ED30E2FB75ED04B3
:104BDB00AFEF22E5ED20E0FB8FEF22EF600443EC1B
:104BEB00042253ECFB22EF600443EC082253ECF756
:104BFB0022E5ED5402FF22E5ED5404FF22E5ED54CE
:104C0B0001FF22902BCAE0120F04902BCFE09000F3
:104C1B0001120F16902BD0E0900002020F167E2689
:104C2B007FAAE4FDAB05E4FCFD902E20EBF0021D0A
:104C3B0029902BCCE0FF22E4902BCCF022E4F5FF63
:104C4B0075D102E5D120E0FBE4F5D1F5FFEF9169D9
:104C5B00EE540F42D6E4F5FFCFEDCF8FD422F5D72C
:104C6B00E4F5FF53D6F022E4F5FFEFF5D8E4F5FFBA
:104C7B0053D60FEE540FC4F854F0C8E4C4540F4885
:104C8B0042D622E4F5FF8FD422E4F5FFE5D154019F
:104C9B0033333354F8FFE4F5FFE5D354074FFF22CA
:104CAB00EFB40109D2AD75FF0143AE4022C2AD7521
:104CBB00FF0153AEBF2275C80122E5C85402FF7530
:104CCB00C80222E5C85404FF22E5C85401FF22E4C0
:104CDB00FF3034037402FF22200005D2160209FCB8
:104CEB00C322902F98E0701C7BFF7A0479987D2368
:104CFB00120B647BFF7A0479817D17120B64902F62
:104D0B00987401F022020B697B017A2F79697D017E
:104D1B00121747902F69E0FF22902F301217DAE419
:104D2B00FF902F301212A18F82B13C0FEFB410F114
:104D3B0022758300E593020F16902CD61217DAE535
:104D4B008F20E0FB1217E87E10902CD912173CF540
:104D5B0093EE70F57E10902CD612173CF594EE70F6
:104D6B00F57F01B186B1ACEF70FB7E10902CDC129D
:104D7B0012A11E8E82B13CEE70F222EFB40107B18C
:104D8B009D4401F58F2275FF01E58F54F04406F524
:104D9B008F2275FF01E58F54F622B19D4408F58FE4
:104DAB002275FF01E58F5401FF2275FF01E58F543A
:104DBB0008FF22EFB4010775FF0143AE202275FFF8
:104DCB000153AEDF22EFB4010775FF01439120229F
:104DDB0075FF015391DF22FF9004711212A1E9229A
:104DEB001212AA902B62E0540F22EEF0A3EFF0A365
:104DFB000212AAFF1212A1EF020F04900740E0FD6E
:104E0B0075F0AA9007450212952408F9E43AFA22A4
:104E1B00FDEF4DFFE5F08FF00210641212A1E924B3
:104E2B00BDF9E43AFA22F0A3F0A3F0A3F02274FF49
:104E3B00F5F0120FD545F022EDF0A30212AA1212D3
:104E4B00A1E9240422900742E0FEA3E0FF1208BC74
:104E5B00D3EF94C8EE940022D22D7B017A08799B74
:104E6B0022E4120F040429F9E43AFA22EEF0A3EF3C
:104E7B00F0A3ECF0A3ED222407F9E43AFA2290090F
:104E8B0035F0A3EFF022F07B017A27797522E090C1
:104E9B0008E8F0A3EFF0E4A322AF05F0A3EFF022B4
:104EAB007A0879CE7F0422E0FFA30212A1E9958252
:104EBB00EA958322E924FFF9EA34FF22F0A3EDF00F
:104ECB00E4A3F0228D828C830213E1AF03EAF0A3FB
:104EDB00EFF022242DF9E43AFA7D04E4FF22F0905E
:104EEB00285D7401F022E0FEA3E0FFC322240CF93D
:104EFB00E43AFA2275F005A424F3F9740022121295
:104F0B00A1E924B7221212A1E9240622242CF9E4E8
:104F1B003AFA7440227B017A2E790B7F0222902D74
:104F2B00DCECF0A3EDF022F583EEF0A3EFF022FF23
:104F3B00AEF054076403222DF582EA3CF58322740C
:104F4B0038F0A37443F022E0FEA3E0FF7C0022F5CF
:104F5B0082E43408F58322FF54F0C4540FFE22740C
:104F6B0001F0AE04AF0522AA06A9070213DDE0FF8C
:104F7B00A3E0FEC39F22F582E43EF583E02290126C
:0E4F8B000EE0D394012233333354F8F5F422B0
:107F7E000200022B332FED020604022FEF302300F6
:107F8E0039040604023028382A0807050604023888
:087F9E002F383D0013FF06041B
:107FB000FFFFFFFFFFFFFFFF7FC600000000000084
:067FC000000003080000B0
:108000007B01E4FFAE051DEE6009EF120F0412F8CC
:108010002C80F122902EA6124DF812F71E11F54A6F
:10802000C36001D3400201F312F7135014E0FF9430
:1080300004500280027F0411F5124E2AF1ED12F86D
:10804000FE902B3B1232EC12F91811F424DF31DFD1
:10805000902B4911F424E631DF902B4F11F424E7E3
:1080600031DF902B5011F424E831DF902B5111F4C3
:1080700024E431DF902B4711F424E531DF902B48C5
:1080800011F424E9912012F8D5F0902B3B1212A1A3
:10809000F1F9E4902B3E11F4911E45F0604C902EC6
:1080A000A6E06029A31212A1F1ED7A2B794212F811
:1080B0008712F734C003C002C00111F5911EF5828A
:1080C00085F083D001D002D003E4FF801A12F73488
:1080D000C003C002C00111F5911EF58285F083D066
:1080E00001D002D0037F011213E1122726902B3B0F
:1080F0001212AA22F0902B3B1212A1E922900999A8
:108100001212AA900999D1B5540F120F049009992F
:108110001212A1E924E61237F0020EAFAE058E511D
:1081200012B3BDAD5112B3A6EF24FF22902B3B1228
:1081300012AAE924E331DF6019E4902B52F0902B6E
:108140003B123B517401120F047E0B7F32FD7C0009
:10815000807C11F5240131DFD39401403B120BD216
:10816000902B52EFF07E0B7F3211F524B731DF30C8
:10817000E71911F524BB31DF20E01011F524BC31E3
:10818000DF12F92AB504047D07800911F524B13105
:10819000DF12F9577C008036E4902B52F07E0B7F83
:1081A0003211F524B731DF30E71911F524BB31DF87
:1081B00020E01011F524BC31DF12F92AB504047D4A
:1081C00007800911F524B131DF12F9577C00020B49
:1081D000CD021CE1C219902BD91212A1E92402F997
:1081E000E43AFA020E45902EAA1212AAE94AC36096
:1081F00001D3400241BF902EAA31D930E01751C1BE
:10820000E924B731DF540FFFBF0503D38001C3401A
:108210000451C1212C12F71E51C112F7135014E062
:10822000FF9404500280027F0451C1124E29F1EDE7
:1082300012F8FE902EAA1232EC12F91851C0E9245D
:10824000DF31DF902B4951C0E924E631DF902B4F1D
:1082500051C0E924E731DF902B5051C0E924E831C7
:10826000DF902B5151C0E924E431DF902B4751C0FE
:10827000E924E531DF902B4851C0E924E99120122F
:10828000F8D551C0E924E331DF902EAD7003F080C2
:10829000037401F0911745F06021902EADE0FF12BC
:1082A000F734C003C002C0019117FDACF0F5828520
:1082B000F083D001D002D0031213E151C1F1F922B1
:1082C000F0902EAA0212A1E543600261837187E952
:1082D000240431DF30E61B90046EF1D6F9E43AFA5B
:1082E000E475F06412106471877406120F04C22CD6
:1082F00080447187E9240531DF4420FF7187E92438
:1083000029F9E43AFAEF7184E9124F177184E912FE
:108310004EDE1104718774057184E9240431DF3065
:10832000E3067E037FE880047E077FD090046EF131
:10833000D612A529D22C90046E31D9FF7187E92479
:108340000331DFFD7187E912F870C003C002C0017C
:108350007187E9240631DF900910F07187E9240460
:1083600031DF54F7900911F0A3740AF0A374E7F019
:10837000D001D002D003120BDCEF700771877407B5
:10838000120F0422120F0490046E0212A111F54A7A
:10839000C36001D340028116902B3B123B5174FF06
:1083A000120EAF120E45FFD394014007EF94035015
:1083B00002805311F5240131DF64017051902B3B91
:1083C0001232EC121001124F3A703B11F524B63103
:1083D000DF654E703111F524B731DF20E72811F544
:1083E00024B931DFD39440501D200D1A902B3B123D
:1083F00032ECEF54F84402FF12A52D11F524B731E9
:10840000DF4410120F04902B3B1212A101FDE490E7
:108410002B3EF0120BE622902EAA1212A1E924DCC8
:10842000F9E43AFA0210017D01AF37300C53ED60E8
:1084300017E4FED163E0B50709D163E4F0B114E4B9
:10844000F0220EEEB405EC2290265BE0FDE4FCFE8B
:10845000D163E0B5070EB114E0C394FF5023B1140B
:10846000E004F022B114E0FBEDD39B4004AD03AC7B
:10847000060EEEB405DAECD164EFF0ECB115740140
:10848000F0229027CFE0FFEF6011D394E8500C1258
:10849000D7EEAD0712B3A6EF24FF22C322E5432493
:1084A000FD60521460152403706912F3135064C206
:1084B0002890046E123B517401804E718712F87738
:1084C000C003C002C0017B017A0479BBF1EDD00189
:1084D000D002D0037F13B1277187E9240431DF5420
:1084E000097002802790121AE0FF718712F9211299
:1084F0000F04D228227187E9240331DFB544149098
:10850000121AE0FF718712F921120F0471877407A4
:10851000120F0422EE25E0245BF582E43426F58375
:10852000227A2679547F05902D621212AAAE071F77
:10853000EE601E902D65D1B5FE902D621212A1EE57
:10854000120F04902D63121FE6902D66121FE68015
:10855000DC227D03AF37902F49EFF0A3EDF0300719
:108560001D902738E0B40E0B122726E4FF12D5FE2B
:10857000D20722902F4AE06404605502D33BD20711
:1085800012F79B740BF0902F4AE090266AF0902728
:1085900038E0640E701D12C13512C1EC12D2B774EE
:1085A00009F0743E12F97712C5987024FBFAF9FFAE
:1085B00002D5FE12C13512C1EC12D2B77409F074A3
:1085C0003912F97712C5987007FBFAF9FF12E7BF65
:1085D00022902D691212AAAE071FEE601F902D6C1B
:1085E000D1B5FE902D69D1B56E60037F0122902D2B
:1085F0006A121FE6902D6D121FE680DB7F0022714C
:1086000087E47184E9240531DF1460030470537139
:1086100087E9242C31DF540F9009B4F090046E6088
:10862000321212A1E9242B31DFFF1227ECEFFD906B
:1086300009B4E014F075F064A42419FFE435F0CF18
:108640002DCF3400FE90046EF1D6F9E43AFAEE8FA5
:10865000F08005F1D612F899121064718774021235
:108660000F0422EE25E0245AF582E43426F5832215
:10867000902F031212AA902F03D1B5FF6422600538
:10868000EF6423702C300517E9240131DF12B3BCED
:1086900012F8C4600AD21312F85C31DF12E7D41268
:1086A000F85C31DFFF7D02B15612D33BE49026D354
:1086B000F022902F061212A1020E45902DBA12122E
:1086C000AA7E007F14122148902DBD124DFF902DDF
:1086D000BDD1B5701004120F04F1F3E94A60177EA2
:1086E000007F08800AF1F3E94A600B7E007F10F1F9
:1086F000F3740412D2B022902ECD1212AA7E007F03
:1087000014124C2F7E007F10902ECD1212A112A5B4
:10871000901207827F01227F437D4412F2D2E5430B
:1087200014700312F37AE4F54290046E12F8A11269
:108730000E4524FE601524FE6016146017146018A0
:1087400014601A24067073B1FF806F12F347806AB9
:1087500051C78066919D806212F35E805D7187E9EA
:10876000241E912045F0604AE54364046009718746
:10877000E9240131DFF5447187E924099120FFAE36
:10878000F012B4BB718712F87712A52DC003C00296
:10879000C0017187E9241E9120F58285F083D00104
:1087A000D002D003AF441213E17187E912F8971297
:1087B00010647187E4120F04C2290542E542C39494
:1087C000025002E129E5416009FD7F0112F27CE4DB
:1087D000F541229009241212A1E92407229027A230
:1087E000E004FF902740F07B017A277971902D6596
:1087F0000212AA902DBA0212A1E4020F040221482B
:10880000E49009AE128B4675F0EBE55212894EE00A
:1088100054F0644070022101E4FE314AE0FDB401ED
:10882000099009AFEEF0E4FF801FEDB4020B900950
:10883000AFE0B4FF04EEF0800B314AE054F0FDBD30
:1088400080027F010EEEB404D1EF60069009AF7490
:10885000FFF09009AFE0F47002210112300A5002DB
:108860002101E51530E10221019009AFE0900005FA
:108870003154E030E408900007315B549FF09009D8
:10888000AFE09000B93154E0540FFEBE05089000EF
:10889000BD315B30E1209009AFE0FF75F0EB900057
:1088A00004121295E020E52E75F0EBEF9000BC125B
:1088B0001295E0B4FF209009AFE075F0EB90000650
:1088C000121295C083C082E04401FFA3E0D082D0A1
:1088D00083CFF0A3EFF09009AFE03164123027505E
:1088E000209009AFE0F55275F0EB314EE04440F0D6
:1088F0009009AE7401F09008A4F0E51530E202D3BF
:1089000022E51530E23D7F04123C0075F0EBE552A4
:10891000314EE0FF54F06440701F75F0EBE55231CA
:108920004EEF540FF075F0EBE552314EE04480F01D
:10893000E5523164120BC3800AE51530E0057F0172
:108940001206D69009AEE024FF2275F0EBEE9000FF
:1089500002021295FF75F0EB02129575F0EBEF1223
:108960001295E02275F0EBA42402F9740035F0FAB8
:108970007B01229009ACEF7146FEFD75F0EBED3105
:108980004EE0FC700C9009ADE0B4FF02EDF00F80FA
:1089900006EC30E0027E010DEDB404DF9009ACE09E
:1089A0006401600DEFC394025007EE7004A374FFDE
:1089B000F09009ADE0FFC39404501EEF31647DEBED
:1089C000E4FF1280049009ACE04410FFA3E0FE75C0
:1089D000F0EB314EEFF0EE808B022726E0FF90287F
:1089E0005DE0FD902F55EFF0ED24FE601F1460292F
:1089F00014602A2403702B51345438641060099099
:108A00002F55E0FF51CC5002D322C32251345438A9
:108A1000FFBF1003D38001C32251BF132251BFA255
:108A2000E122C322EFD394E840037F0022EF124EED
:108A3000FF022143902F55E0FF5124EF22902F0C8D
:108A4000EFF0A3EDF0FF51D6C007902F0C51375433
:108A500038FED0E04E7F1030E3027F08902F0EEFFB
:108A6000F0902F0C714E7007902F0D714E60047FA7
:108A7000008014902F0DE0FF51A9C007902F0CE04B
:108A8000FF51A9D0E05FFFEF30E1037F0422EF3018
:108A9000E0037F0322902F0EE0FEB410037F02223A
:108AA000EE7F00B408027F0122EFD394E840037FF9
:108AB0000022EF75F005A424F5F97400022143901B
:108AC0002F55E0FF51A9902F56EFF02251D6BF0845
:108AD00003D38001C3225124EF5438FF22902C1B72
:108AE000E0FDAF4E902F41EFF0A3EDF090285DE058
:108AF00014F0D39400400F902F4131DC50EE902FB2
